{
	"data": {
		"bytecode": {
			"linkReferences": {},
			"object": "6080604052348015600f57600080fd5b5061140e8061001f6000396000f3fe608060405234801561001057600080fd5b506004361061004c5760003560e01c80635189103e146100515780635c3eeff41461006d578063729d25ee14610089578063d09ef241146100a5575b600080fd5b61006b60048036038101906100669190610ae7565b6100d9565b005b61008760048036038101906100829190610c29565b6101b6565b005b6100a3600480360381019061009e9190610ce4565b610305565b005b6100bf60048036038101906100ba9190610d6f565b610461565b6040516100d0959493929190610eec565b60405180910390f35b60008060008481526020019081526020016000206000015403610131576040517f08c379a000000000000000000000000000000000000000000000000000000000815260040161012890610fb8565b60405180910390fd5b6000808381526020019081526020016000206002018190806001815401808255809150506001900390600052602060002001600090919091909150908161017891906111e4565b507f43ebb29c5825dc21dd53ce082c92fe1694fc7f706bef05f794db38fd50e91c4282826040516101aa9291906112ef565b60405180910390a15050565b60006040518060a00160405280868152602001858152602001848152602001600067ffffffffffffffff8111156101f0576101ef6109bc565b5b60405190808252806020026020018201604052801561022357816020015b606081526020019060019003908161020e5790505b5081526020018381525090508060008087815260200190815260200160002060008201518160000155602082015181600101908051906020019061026892919061087d565b50604082015181600201908051906020019061028592919061087d565b5060608201518160030190805190602001906102a292919061087d565b5060808201518160040190805190602001906102bf92919061087d565b509050507f61ba14b4e9d536640cc411111aef88394b509a73867ab5b68ebbd3c67e4101078585856040516102f69392919061131f565b60405180910390a15050505050565b6000806000858152602001908152602001600020600001540361035d576040517f08c379a000000000000000000000000000000000000000000000000000000000815260040161035490610fb8565b60405180910390fd5b600080848152602001908152602001600020600201829080600181540180825580915050600190039060005260206000200160009091909190915090816103a491906111e4565b5060005b8151811015610420576000808581526020019081526020016000206003018282815181106103d9576103d8611364565b5b602002602001015190806001815401808255809150506001900390600052602060002001600090919091909150908161041291906111e4565b5080806001019150506103a8565b507f9886c54f2d6c5a7ab1872b15a88fa019fab8981916830ccab3ca1a3705074fde83838360405161045493929190611393565b60405180910390a1505050565b6000606080606080600080600088815260200190815260200160002060000154036104c1576040517f08c379a00000000000000000000000000000000000000000000000000000000081526004016104b890610fb8565b60405180910390fd5b60008060008881526020019081526020016000206040518060a00160405290816000820154815260200160018201805480602002602001604051908101604052809291908181526020016000905b828210156105bb57838290600052602060002001805461052e90611007565b80601f016020809104026020016040519081016040528092919081815260200182805461055a90611007565b80156105a75780601f1061057c576101008083540402835291602001916105a7565b820191906000526020600020905b81548152906001019060200180831161058a57829003601f168201915b50505050508152602001906001019061050f565b50505050815260200160028201805480602002602001604051908101604052809291908181526020016000905b8282101561069457838290600052602060002001805461060790611007565b80601f016020809104026020016040519081016040528092919081815260200182805461063390611007565b80156106805780601f1061065557610100808354040283529160200191610680565b820191906000526020600020905b81548152906001019060200180831161066357829003601f168201915b5050505050815260200190600101906105e8565b50505050815260200160038201805480602002602001604051908101604052809291908181526020016000905b8282101561076d5783829060005260206000200180546106e090611007565b80601f016020809104026020016040519081016040528092919081815260200182805461070c90611007565b80156107595780601f1061072e57610100808354040283529160200191610759565b820191906000526020600020905b81548152906001019060200180831161073c57829003601f168201915b5050505050815260200190600101906106c1565b50505050815260200160048201805480602002602001604051908101604052809291908181526020016000905b828210156108465783829060005260206000200180546107b990611007565b80601f01602080910402602001604051908101604052809291908181526020018280546107e590611007565b80156108325780601f1061080757610100808354040283529160200191610832565b820191906000526020600020905b81548152906001019060200180831161081557829003601f168201915b50505050508152602001906001019061079a565b5050505081525050905080600001518160200151826040015183606001518460800151955095509550955095505091939590929450565b8280548282559060005260206000209081019282156108c5579160200282015b828111156108c45782518290816108b491906111e4565b509160200191906001019061089d565b5b5090506108d291906108d6565b5090565b5b808211156108f657600081816108ed91906108fa565b506001016108d7565b5090565b50805461090690611007565b6000825580601f106109185750610937565b601f016020900490600052602060002090810190610936919061093a565b5b50565b5b8082111561095357600081600090555060010161093b565b5090565b6000604051905090565b600080fd5b600080fd5b6000819050919050565b61097e8161096b565b811461098957600080fd5b50565b60008135905061099b81610975565b92915050565b600080fd5b600080fd5b6000601f19601f8301169050919050565b7f4e487b7100000000000000000000000000000000000000000000000000000000600052604160045260246000fd5b6109f4826109ab565b810181811067ffffffffffffffff82111715610a1357610a126109bc565b5b80604052505050565b6000610a26610957565b9050610a3282826109eb565b919050565b600067ffffffffffffffff821115610a5257610a516109bc565b5b610a5b826109ab565b9050602081019050919050565b82818337600083830152505050565b6000610a8a610a8584610a37565b610a1c565b905082815260208101848484011115610aa657610aa56109a6565b5b610ab1848285610a68565b509392505050565b600082601f830112610ace57610acd6109a1565b5b8135610ade848260208601610a77565b91505092915050565b60008060408385031215610afe57610afd610961565b5b6000610b0c8582860161098c565b925050602083013567ffffffffffffffff811115610b2d57610b2c610966565b5b610b3985828601610ab9565b9150509250929050565b600067ffffffffffffffff821115610b5e57610b5d6109bc565b5b602082029050602081019050919050565b600080fd5b6000610b87610b8284610b43565b610a1c565b90508083825260208201905060208402830185811115610baa57610ba9610b6f565b5b835b81811015610bf157803567ffffffffffffffff811115610bcf57610bce6109a1565b5b808601610bdc8982610ab9565b85526020850194505050602081019050610bac565b5050509392505050565b600082601f830112610c1057610c0f6109a1565b5b8135610c20848260208601610b74565b91505092915050565b60008060008060808587031215610c4357610c42610961565b5b6000610c518782880161098c565b945050602085013567ffffffffffffffff811115610c7257610c71610966565b5b610c7e87828801610bfb565b935050604085013567ffffffffffffffff811115610c9f57610c9e610966565b5b610cab87828801610bfb565b925050606085013567ffffffffffffffff811115610ccc57610ccb610966565b5b610cd887828801610bfb565b91505092959194509250565b600080600060608486031215610cfd57610cfc610961565b5b6000610d0b8682870161098c565b935050602084013567ffffffffffffffff811115610d2c57610d2b610966565b5b610d3886828701610ab9565b925050604084013567ffffffffffffffff811115610d5957610d58610966565b5b610d6586828701610bfb565b9150509250925092565b600060208284031215610d8557610d84610961565b5b6000610d938482850161098c565b91505092915050565b610da58161096b565b82525050565b600081519050919050565b600082825260208201905092915050565b6000819050602082019050919050565b600081519050919050565b600082825260208201905092915050565b60005b83811015610e11578082015181840152602081019050610df6565b60008484015250505050565b6000610e2882610dd7565b610e328185610de2565b9350610e42818560208601610df3565b610e4b816109ab565b840191505092915050565b6000610e628383610e1d565b905092915050565b6000602082019050919050565b6000610e8282610dab565b610e8c8185610db6565b935083602082028501610e9e85610dc7565b8060005b85811015610eda5784840389528151610ebb8582610e56565b9450610ec683610e6a565b925060208a01995050600181019050610ea2565b50829750879550505050505092915050565b600060a082019050610f016000830188610d9c565b8181036020830152610f138187610e77565b90508181036040830152610f278186610e77565b90508181036060830152610f3b8185610e77565b90508181036080830152610f4f8184610e77565b90509695505050505050565b600082825260208201905092915050565b7f4f72646572206e6f7420666f756e640000000000000000000000000000000000600082015250565b6000610fa2600f83610f5b565b9150610fad82610f6c565b602082019050919050565b60006020820190508181036000830152610fd181610f95565b9050919050565b7f4e487b7100000000000000000000000000000000000000000000000000000000600052602260045260246000fd5b6000600282049050600182168061101f57607f821691505b60208210810361103257611031610fd8565b5b50919050565b60008190508160005260206000209050919050565b60006020601f8301049050919050565b600082821b905092915050565b60006008830261109a7fffffffffffffffffffffffffffffffffffffffffffffffffffffffffffffffff8261105d565b6110a4868361105d565b95508019841693508086168417925050509392505050565b6000819050919050565b60006110e16110dc6110d78461096b565b6110bc565b61096b565b9050919050565b6000819050919050565b6110fb836110c6565b61110f611107826110e8565b84845461106a565b825550505050565b600090565b611124611117565b61112f8184846110f2565b505050565b5b818110156111535761114860008261111c565b600181019050611135565b5050565b601f8211156111985761116981611038565b6111728461104d565b81016020851015611181578190505b61119561118d8561104d565b830182611134565b50505b505050565b600082821c905092915050565b60006111bb6000198460080261119d565b1980831691505092915050565b60006111d483836111aa565b9150826002028217905092915050565b6111ed82610dd7565b67ffffffffffffffff811115611206576112056109bc565b5b6112108254611007565b61121b828285611157565b600060209050601f83116001811461124e576000841561123c578287015190505b61124685826111c8565b8655506112ae565b601f19841661125c86611038565b60005b828110156112845784890151825560018201915060208501945060208101905061125f565b868310156112a1578489015161129d601f8916826111aa565b8355505b6001600288020188555050505b505050505050565b60006112c182610dd7565b6112cb8185610f5b565b93506112db818560208601610df3565b6112e4816109ab565b840191505092915050565b60006040820190506113046000830185610d9c565b818103602083015261131681846112b6565b90509392505050565b60006060820190506113346000830186610d9c565b81810360208301526113468185610e77565b9050818103604083015261135a8184610e77565b9050949350505050565b7f4e487b7100000000000000000000000000000000000000000000000000000000600052603260045260246000fd5b60006060820190506113a86000830186610d9c565b81810360208301526113ba81856112b6565b905081810360408301526113ce8184610e77565b905094935050505056fea26469706673582212208dac73cf46a6a3e2cc2ad0c9eccb9e02c6b37f87c9e44172ac538746a652fecb64736f6c634300081a0033",
			"opcodes": "PUSH1 0x80 PUSH1 0x40 MSTORE CALLVALUE DUP1 ISZERO PUSH1 0xF JUMPI PUSH1 0x0 DUP1 REVERT JUMPDEST POP PUSH2 0x140E DUP1 PUSH2 0x1F PUSH1 0x0 CODECOPY PUSH1 0x0 RETURN INVALID PUSH1 0x80 PUSH1 0x40 MSTORE CALLVALUE DUP1 ISZERO PUSH2 0x10 JUMPI PUSH1 0x0 DUP1 REVERT JUMPDEST POP PUSH1 0x4 CALLDATASIZE LT PUSH2 0x4C JUMPI PUSH1 0x0 CALLDATALOAD PUSH1 0xE0 SHR DUP1 PUSH4 0x5189103E EQ PUSH2 0x51 JUMPI DUP1 PUSH4 0x5C3EEFF4 EQ PUSH2 0x6D JUMPI DUP1 PUSH4 0x729D25EE EQ PUSH2 0x89 JUMPI DUP1 PUSH4 0xD09EF241 EQ PUSH2 0xA5 JUMPI JUMPDEST PUSH1 0x0 DUP1 REVERT JUMPDEST PUSH2 0x6B PUSH1 0x4 DUP1 CALLDATASIZE SUB DUP2 ADD SWAP1 PUSH2 0x66 SWAP2 SWAP1 PUSH2 0xAE7 JUMP JUMPDEST PUSH2 0xD9 JUMP JUMPDEST STOP JUMPDEST PUSH2 0x87 PUSH1 0x4 DUP1 CALLDATASIZE SUB DUP2 ADD SWAP1 PUSH2 0x82 SWAP2 SWAP1 PUSH2 0xC29 JUMP JUMPDEST PUSH2 0x1B6 JUMP JUMPDEST STOP JUMPDEST PUSH2 0xA3 PUSH1 0x4 DUP1 CALLDATASIZE SUB DUP2 ADD SWAP1 PUSH2 0x9E SWAP2 SWAP1 PUSH2 0xCE4 JUMP JUMPDEST PUSH2 0x305 JUMP JUMPDEST STOP JUMPDEST PUSH2 0xBF PUSH1 0x4 DUP1 CALLDATASIZE SUB DUP2 ADD SWAP1 PUSH2 0xBA SWAP2 SWAP1 PUSH2 0xD6F JUMP JUMPDEST PUSH2 0x461 JUMP JUMPDEST PUSH1 0x40 MLOAD PUSH2 0xD0 SWAP6 SWAP5 SWAP4 SWAP3 SWAP2 SWAP1 PUSH2 0xEEC JUMP JUMPDEST PUSH1 0x40 MLOAD DUP1 SWAP2 SUB SWAP1 RETURN JUMPDEST PUSH1 0x0 DUP1 PUSH1 0x0 DUP5 DUP2 MSTORE PUSH1 0x20 ADD SWAP1 DUP2 MSTORE PUSH1 0x20 ADD PUSH1 0x0 KECCAK256 PUSH1 0x0 ADD SLOAD SUB PUSH2 0x131 JUMPI PUSH1 0x40 MLOAD PUSH32 0x8C379A000000000000000000000000000000000000000000000000000000000 DUP2 MSTORE PUSH1 0x4 ADD PUSH2 0x128 SWAP1 PUSH2 0xFB8 JUMP JUMPDEST PUSH1 0x40 MLOAD DUP1 SWAP2 SUB SWAP1 REVERT JUMPDEST PUSH1 0x0 DUP1 DUP4 DUP2 MSTORE PUSH1 0x20 ADD SWAP1 DUP2 MSTORE PUSH1 0x20 ADD PUSH1 0x0 KECCAK256 PUSH1 0x2 ADD DUP2 SWAP1 DUP1 PUSH1 0x1 DUP2 SLOAD ADD DUP1 DUP3 SSTORE DUP1 SWAP2 POP POP PUSH1 0x1 SWAP1 SUB SWAP1 PUSH1 0x0 MSTORE PUSH1 0x20 PUSH1 0x0 KECCAK256 ADD PUSH1 0x0 SWAP1 SWAP2 SWAP1 SWAP2 SWAP1 SWAP2 POP SWAP1 DUP2 PUSH2 0x178 SWAP2 SWAP1 PUSH2 0x11E4 JUMP JUMPDEST POP PUSH32 0x43EBB29C5825DC21DD53CE082C92FE1694FC7F706BEF05F794DB38FD50E91C42 DUP3 DUP3 PUSH1 0x40 MLOAD PUSH2 0x1AA SWAP3 SWAP2 SWAP1 PUSH2 0x12EF JUMP JUMPDEST PUSH1 0x40 MLOAD DUP1 SWAP2 SUB SWAP1 LOG1 POP POP JUMP JUMPDEST PUSH1 0x0 PUSH1 0x40 MLOAD DUP1 PUSH1 0xA0 ADD PUSH1 0x40 MSTORE DUP1 DUP7 DUP2 MSTORE PUSH1 0x20 ADD DUP6 DUP2 MSTORE PUSH1 0x20 ADD DUP5 DUP2 MSTORE PUSH1 0x20 ADD PUSH1 0x0 PUSH8 0xFFFFFFFFFFFFFFFF DUP2 GT ISZERO PUSH2 0x1F0 JUMPI PUSH2 0x1EF PUSH2 0x9BC JUMP JUMPDEST JUMPDEST PUSH1 0x40 MLOAD SWAP1 DUP1 DUP3 MSTORE DUP1 PUSH1 0x20 MUL PUSH1 0x20 ADD DUP3 ADD PUSH1 0x40 MSTORE DUP1 ISZERO PUSH2 0x223 JUMPI DUP2 PUSH1 0x20 ADD JUMPDEST PUSH1 0x60 DUP2 MSTORE PUSH1 0x20 ADD SWAP1 PUSH1 0x1 SWAP1 SUB SWAP1 DUP2 PUSH2 0x20E JUMPI SWAP1 POP JUMPDEST POP DUP2 MSTORE PUSH1 0x20 ADD DUP4 DUP2 MSTORE POP SWAP1 POP DUP1 PUSH1 0x0 DUP1 DUP8 DUP2 MSTORE PUSH1 0x20 ADD SWAP1 DUP2 MSTORE PUSH1 0x20 ADD PUSH1 0x0 KECCAK256 PUSH1 0x0 DUP3 ADD MLOAD DUP2 PUSH1 0x0 ADD SSTORE PUSH1 0x20 DUP3 ADD MLOAD DUP2 PUSH1 0x1 ADD SWAP1 DUP1 MLOAD SWAP1 PUSH1 0x20 ADD SWAP1 PUSH2 0x268 SWAP3 SWAP2 SWAP1 PUSH2 0x87D JUMP JUMPDEST POP PUSH1 0x40 DUP3 ADD MLOAD DUP2 PUSH1 0x2 ADD SWAP1 DUP1 MLOAD SWAP1 PUSH1 0x20 ADD SWAP1 PUSH2 0x285 SWAP3 SWAP2 SWAP1 PUSH2 0x87D JUMP JUMPDEST POP PUSH1 0x60 DUP3 ADD MLOAD DUP2 PUSH1 0x3 ADD SWAP1 DUP1 MLOAD SWAP1 PUSH1 0x20 ADD SWAP1 PUSH2 0x2A2 SWAP3 SWAP2 SWAP1 PUSH2 0x87D JUMP JUMPDEST POP PUSH1 0x80 DUP3 ADD MLOAD DUP2 PUSH1 0x4 ADD SWAP1 DUP1 MLOAD SWAP1 PUSH1 0x20 ADD SWAP1 PUSH2 0x2BF SWAP3 SWAP2 SWAP1 PUSH2 0x87D JUMP JUMPDEST POP SWAP1 POP POP PUSH32 0x61BA14B4E9D536640CC411111AEF88394B509A73867AB5B68EBBD3C67E410107 DUP6 DUP6 DUP6 PUSH1 0x40 MLOAD PUSH2 0x2F6 SWAP4 SWAP3 SWAP2 SWAP1 PUSH2 0x131F JUMP JUMPDEST PUSH1 0x40 MLOAD DUP1 SWAP2 SUB SWAP1 LOG1 POP POP POP POP POP JUMP JUMPDEST PUSH1 0x0 DUP1 PUSH1 0x0 DUP6 DUP2 MSTORE PUSH1 0x20 ADD SWAP1 DUP2 MSTORE PUSH1 0x20 ADD PUSH1 0x0 KECCAK256 PUSH1 0x0 ADD SLOAD SUB PUSH2 0x35D JUMPI PUSH1 0x40 MLOAD PUSH32 0x8C379A000000000000000000000000000000000000000000000000000000000 DUP2 MSTORE PUSH1 0x4 ADD PUSH2 0x354 SWAP1 PUSH2 0xFB8 JUMP JUMPDEST PUSH1 0x40 MLOAD DUP1 SWAP2 SUB SWAP1 REVERT JUMPDEST PUSH1 0x0 DUP1 DUP5 DUP2 MSTORE PUSH1 0x20 ADD SWAP1 DUP2 MSTORE PUSH1 0x20 ADD PUSH1 0x0 KECCAK256 PUSH1 0x2 ADD DUP3 SWAP1 DUP1 PUSH1 0x1 DUP2 SLOAD ADD DUP1 DUP3 SSTORE DUP1 SWAP2 POP POP PUSH1 0x1 SWAP1 SUB SWAP1 PUSH1 0x0 MSTORE PUSH1 0x20 PUSH1 0x0 KECCAK256 ADD PUSH1 0x0 SWAP1 SWAP2 SWAP1 SWAP2 SWAP1 SWAP2 POP SWAP1 DUP2 PUSH2 0x3A4 SWAP2 SWAP1 PUSH2 0x11E4 JUMP JUMPDEST POP PUSH1 0x0 JUMPDEST DUP2 MLOAD DUP2 LT ISZERO PUSH2 0x420 JUMPI PUSH1 0x0 DUP1 DUP6 DUP2 MSTORE PUSH1 0x20 ADD SWAP1 DUP2 MSTORE PUSH1 0x20 ADD PUSH1 0x0 KECCAK256 PUSH1 0x3 ADD DUP3 DUP3 DUP2 MLOAD DUP2 LT PUSH2 0x3D9 JUMPI PUSH2 0x3D8 PUSH2 0x1364 JUMP JUMPDEST JUMPDEST PUSH1 0x20 MUL PUSH1 0x20 ADD ADD MLOAD SWAP1 DUP1 PUSH1 0x1 DUP2 SLOAD ADD DUP1 DUP3 SSTORE DUP1 SWAP2 POP POP PUSH1 0x1 SWAP1 SUB SWAP1 PUSH1 0x0 MSTORE PUSH1 0x20 PUSH1 0x0 KECCAK256 ADD PUSH1 0x0 SWAP1 SWAP2 SWAP1 SWAP2 SWAP1 SWAP2 POP SWAP1 DUP2 PUSH2 0x412 SWAP2 SWAP1 PUSH2 0x11E4 JUMP JUMPDEST POP DUP1 DUP1 PUSH1 0x1 ADD SWAP2 POP POP PUSH2 0x3A8 JUMP JUMPDEST POP PUSH32 0x9886C54F2D6C5A7AB1872B15A88FA019FAB8981916830CCAB3CA1A3705074FDE DUP4 DUP4 DUP4 PUSH1 0x40 MLOAD PUSH2 0x454 SWAP4 SWAP3 SWAP2 SWAP1 PUSH2 0x1393 JUMP JUMPDEST PUSH1 0x40 MLOAD DUP1 SWAP2 SUB SWAP1 LOG1 POP POP POP JUMP JUMPDEST PUSH1 0x0 PUSH1 0x60 DUP1 PUSH1 0x60 DUP1 PUSH1 0x0 DUP1 PUSH1 0x0 DUP9 DUP2 MSTORE PUSH1 0x20 ADD SWAP1 DUP2 MSTORE PUSH1 0x20 ADD PUSH1 0x0 KECCAK256 PUSH1 0x0 ADD SLOAD SUB PUSH2 0x4C1 JUMPI PUSH1 0x40 MLOAD PUSH32 0x8C379A000000000000000000000000000000000000000000000000000000000 DUP2 MSTORE PUSH1 0x4 ADD PUSH2 0x4B8 SWAP1 PUSH2 0xFB8 JUMP JUMPDEST PUSH1 0x40 MLOAD DUP1 SWAP2 SUB SWAP1 REVERT JUMPDEST PUSH1 0x0 DUP1 PUSH1 0x0 DUP9 DUP2 MSTORE PUSH1 0x20 ADD SWAP1 DUP2 MSTORE PUSH1 0x20 ADD PUSH1 0x0 KECCAK256 PUSH1 0x40 MLOAD DUP1 PUSH1 0xA0 ADD PUSH1 0x40 MSTORE SWAP1 DUP2 PUSH1 0x0 DUP3 ADD SLOAD DUP2 MSTORE PUSH1 0x20 ADD PUSH1 0x1 DUP3 ADD DUP1 SLOAD DUP1 PUSH1 0x20 MUL PUSH1 0x20 ADD PUSH1 0x40 MLOAD SWAP1 DUP2 ADD PUSH1 0x40 MSTORE DUP1 SWAP3 SWAP2 SWAP1 DUP2 DUP2 MSTORE PUSH1 0x20 ADD PUSH1 0x0 SWAP1 JUMPDEST DUP3 DUP3 LT ISZERO PUSH2 0x5BB JUMPI DUP4 DUP3 SWAP1 PUSH1 0x0 MSTORE PUSH1 0x20 PUSH1 0x0 KECCAK256 ADD DUP1 SLOAD PUSH2 0x52E SWAP1 PUSH2 0x1007 JUMP JUMPDEST DUP1 PUSH1 0x1F ADD PUSH1 0x20 DUP1 SWAP2 DIV MUL PUSH1 0x20 ADD PUSH1 0x40 MLOAD SWAP1 DUP2 ADD PUSH1 0x40 MSTORE DUP1 SWAP3 SWAP2 SWAP1 DUP2 DUP2 MSTORE PUSH1 0x20 ADD DUP3 DUP1 SLOAD PUSH2 0x55A SWAP1 PUSH2 0x1007 JUMP JUMPDEST DUP1 ISZERO PUSH2 0x5A7 JUMPI DUP1 PUSH1 0x1F LT PUSH2 0x57C JUMPI PUSH2 0x100 DUP1 DUP4 SLOAD DIV MUL DUP4 MSTORE SWAP2 PUSH1 0x20 ADD SWAP2 PUSH2 0x5A7 JUMP JUMPDEST DUP3 ADD SWAP2 SWAP1 PUSH1 0x0 MSTORE PUSH1 0x20 PUSH1 0x0 KECCAK256 SWAP1 JUMPDEST DUP2 SLOAD DUP2 MSTORE SWAP1 PUSH1 0x1 ADD SWAP1 PUSH1 0x20 ADD DUP1 DUP4 GT PUSH2 0x58A JUMPI DUP3 SWAP1 SUB PUSH1 0x1F AND DUP3 ADD SWAP2 JUMPDEST POP POP POP POP POP DUP2 MSTORE PUSH1 0x20 ADD SWAP1 PUSH1 0x1 ADD SWAP1 PUSH2 0x50F JUMP JUMPDEST POP POP POP POP DUP2 MSTORE PUSH1 0x20 ADD PUSH1 0x2 DUP3 ADD DUP1 SLOAD DUP1 PUSH1 0x20 MUL PUSH1 0x20 ADD PUSH1 0x40 MLOAD SWAP1 DUP2 ADD PUSH1 0x40 MSTORE DUP1 SWAP3 SWAP2 SWAP1 DUP2 DUP2 MSTORE PUSH1 0x20 ADD PUSH1 0x0 SWAP1 JUMPDEST DUP3 DUP3 LT ISZERO PUSH2 0x694 JUMPI DUP4 DUP3 SWAP1 PUSH1 0x0 MSTORE PUSH1 0x20 PUSH1 0x0 KECCAK256 ADD DUP1 SLOAD PUSH2 0x607 SWAP1 PUSH2 0x1007 JUMP JUMPDEST DUP1 PUSH1 0x1F ADD PUSH1 0x20 DUP1 SWAP2 DIV MUL PUSH1 0x20 ADD PUSH1 0x40 MLOAD SWAP1 DUP2 ADD PUSH1 0x40 MSTORE DUP1 SWAP3 SWAP2 SWAP1 DUP2 DUP2 MSTORE PUSH1 0x20 ADD DUP3 DUP1 SLOAD PUSH2 0x633 SWAP1 PUSH2 0x1007 JUMP JUMPDEST DUP1 ISZERO PUSH2 0x680 JUMPI DUP1 PUSH1 0x1F LT PUSH2 0x655 JUMPI PUSH2 0x100 DUP1 DUP4 SLOAD DIV MUL DUP4 MSTORE SWAP2 PUSH1 0x20 ADD SWAP2 PUSH2 0x680 JUMP JUMPDEST DUP3 ADD SWAP2 SWAP1 PUSH1 0x0 MSTORE PUSH1 0x20 PUSH1 0x0 KECCAK256 SWAP1 JUMPDEST DUP2 SLOAD DUP2 MSTORE SWAP1 PUSH1 0x1 ADD SWAP1 PUSH1 0x20 ADD DUP1 DUP4 GT PUSH2 0x663 JUMPI DUP3 SWAP1 SUB PUSH1 0x1F AND DUP3 ADD SWAP2 JUMPDEST POP POP POP POP POP DUP2 MSTORE PUSH1 0x20 ADD SWAP1 PUSH1 0x1 ADD SWAP1 PUSH2 0x5E8 JUMP JUMPDEST POP POP POP POP DUP2 MSTORE PUSH1 0x20 ADD PUSH1 0x3 DUP3 ADD DUP1 SLOAD DUP1 PUSH1 0x20 MUL PUSH1 0x20 ADD PUSH1 0x40 MLOAD SWAP1 DUP2 ADD PUSH1 0x40 MSTORE DUP1 SWAP3 SWAP2 SWAP1 DUP2 DUP2 MSTORE PUSH1 0x20 ADD PUSH1 0x0 SWAP1 JUMPDEST DUP3 DUP3 LT ISZERO PUSH2 0x76D JUMPI DUP4 DUP3 SWAP1 PUSH1 0x0 MSTORE PUSH1 0x20 PUSH1 0x0 KECCAK256 ADD DUP1 SLOAD PUSH2 0x6E0 SWAP1 PUSH2 0x1007 JUMP JUMPDEST DUP1 PUSH1 0x1F ADD PUSH1 0x20 DUP1 SWAP2 DIV MUL PUSH1 0x20 ADD PUSH1 0x40 MLOAD SWAP1 DUP2 ADD PUSH1 0x40 MSTORE DUP1 SWAP3 SWAP2 SWAP1 DUP2 DUP2 MSTORE PUSH1 0x20 ADD DUP3 DUP1 SLOAD PUSH2 0x70C SWAP1 PUSH2 0x1007 JUMP JUMPDEST DUP1 ISZERO PUSH2 0x759 JUMPI DUP1 PUSH1 0x1F LT PUSH2 0x72E JUMPI PUSH2 0x100 DUP1 DUP4 SLOAD DIV MUL DUP4 MSTORE SWAP2 PUSH1 0x20 ADD SWAP2 PUSH2 0x759 JUMP JUMPDEST DUP3 ADD SWAP2 SWAP1 PUSH1 0x0 MSTORE PUSH1 0x20 PUSH1 0x0 KECCAK256 SWAP1 JUMPDEST DUP2 SLOAD DUP2 MSTORE SWAP1 PUSH1 0x1 ADD SWAP1 PUSH1 0x20 ADD DUP1 DUP4 GT PUSH2 0x73C JUMPI DUP3 SWAP1 SUB PUSH1 0x1F AND DUP3 ADD SWAP2 JUMPDEST POP POP POP POP POP DUP2 MSTORE PUSH1 0x20 ADD SWAP1 PUSH1 0x1 ADD SWAP1 PUSH2 0x6C1 JUMP JUMPDEST POP POP POP POP DUP2 MSTORE PUSH1 0x20 ADD PUSH1 0x4 DUP3 ADD DUP1 SLOAD DUP1 PUSH1 0x20 MUL PUSH1 0x20 ADD PUSH1 0x40 MLOAD SWAP1 DUP2 ADD PUSH1 0x40 MSTORE DUP1 SWAP3 SWAP2 SWAP1 DUP2 DUP2 MSTORE PUSH1 0x20 ADD PUSH1 0x0 SWAP1 JUMPDEST DUP3 DUP3 LT ISZERO PUSH2 0x846 JUMPI DUP4 DUP3 SWAP1 PUSH1 0x0 MSTORE PUSH1 0x20 PUSH1 0x0 KECCAK256 ADD DUP1 SLOAD PUSH2 0x7B9 SWAP1 PUSH2 0x1007 JUMP JUMPDEST DUP1 PUSH1 0x1F ADD PUSH1 0x20 DUP1 SWAP2 DIV MUL PUSH1 0x20 ADD PUSH1 0x40 MLOAD SWAP1 DUP2 ADD PUSH1 0x40 MSTORE DUP1 SWAP3 SWAP2 SWAP1 DUP2 DUP2 MSTORE PUSH1 0x20 ADD DUP3 DUP1 SLOAD PUSH2 0x7E5 SWAP1 PUSH2 0x1007 JUMP JUMPDEST DUP1 ISZERO PUSH2 0x832 JUMPI DUP1 PUSH1 0x1F LT PUSH2 0x807 JUMPI PUSH2 0x100 DUP1 DUP4 SLOAD DIV MUL DUP4 MSTORE SWAP2 PUSH1 0x20 ADD SWAP2 PUSH2 0x832 JUMP JUMPDEST DUP3 ADD SWAP2 SWAP1 PUSH1 0x0 MSTORE PUSH1 0x20 PUSH1 0x0 KECCAK256 SWAP1 JUMPDEST DUP2 SLOAD DUP2 MSTORE SWAP1 PUSH1 0x1 ADD SWAP1 PUSH1 0x20 ADD DUP1 DUP4 GT PUSH2 0x815 JUMPI DUP3 SWAP1 SUB PUSH1 0x1F AND DUP3 ADD SWAP2 JUMPDEST POP POP POP POP POP DUP2 MSTORE PUSH1 0x20 ADD SWAP1 PUSH1 0x1 ADD SWAP1 PUSH2 0x79A JUMP JUMPDEST POP POP POP POP DUP2 MSTORE POP POP SWAP1 POP DUP1 PUSH1 0x0 ADD MLOAD DUP2 PUSH1 0x20 ADD MLOAD DUP3 PUSH1 0x40 ADD MLOAD DUP4 PUSH1 0x60 ADD MLOAD DUP5 PUSH1 0x80 ADD MLOAD SWAP6 POP SWAP6 POP SWAP6 POP SWAP6 POP SWAP6 POP POP SWAP2 SWAP4 SWAP6 SWAP1 SWAP3 SWAP5 POP JUMP JUMPDEST DUP3 DUP1 SLOAD DUP3 DUP3 SSTORE SWAP1 PUSH1 0x0 MSTORE PUSH1 0x20 PUSH1 0x0 KECCAK256 SWAP1 DUP2 ADD SWAP3 DUP3 ISZERO PUSH2 0x8C5 JUMPI SWAP2 PUSH1 0x20 MUL DUP3 ADD JUMPDEST DUP3 DUP2 GT ISZERO PUSH2 0x8C4 JUMPI DUP3 MLOAD DUP3 SWAP1 DUP2 PUSH2 0x8B4 SWAP2 SWAP1 PUSH2 0x11E4 JUMP JUMPDEST POP SWAP2 PUSH1 0x20 ADD SWAP2 SWAP1 PUSH1 0x1 ADD SWAP1 PUSH2 0x89D JUMP JUMPDEST JUMPDEST POP SWAP1 POP PUSH2 0x8D2 SWAP2 SWAP1 PUSH2 0x8D6 JUMP JUMPDEST POP SWAP1 JUMP JUMPDEST JUMPDEST DUP1 DUP3 GT ISZERO PUSH2 0x8F6 JUMPI PUSH1 0x0 DUP2 DUP2 PUSH2 0x8ED SWAP2 SWAP1 PUSH2 0x8FA JUMP JUMPDEST POP PUSH1 0x1 ADD PUSH2 0x8D7 JUMP JUMPDEST POP SWAP1 JUMP JUMPDEST POP DUP1 SLOAD PUSH2 0x906 SWAP1 PUSH2 0x1007 JUMP JUMPDEST PUSH1 0x0 DUP3 SSTORE DUP1 PUSH1 0x1F LT PUSH2 0x918 JUMPI POP PUSH2 0x937 JUMP JUMPDEST PUSH1 0x1F ADD PUSH1 0x20 SWAP1 DIV SWAP1 PUSH1 0x0 MSTORE PUSH1 0x20 PUSH1 0x0 KECCAK256 SWAP1 DUP2 ADD SWAP1 PUSH2 0x936 SWAP2 SWAP1 PUSH2 0x93A JUMP JUMPDEST JUMPDEST POP JUMP JUMPDEST JUMPDEST DUP1 DUP3 GT ISZERO PUSH2 0x953 JUMPI PUSH1 0x0 DUP2 PUSH1 0x0 SWAP1 SSTORE POP PUSH1 0x1 ADD PUSH2 0x93B JUMP JUMPDEST POP SWAP1 JUMP JUMPDEST PUSH1 0x0 PUSH1 0x40 MLOAD SWAP1 POP SWAP1 JUMP JUMPDEST PUSH1 0x0 DUP1 REVERT JUMPDEST PUSH1 0x0 DUP1 REVERT JUMPDEST PUSH1 0x0 DUP2 SWAP1 POP SWAP2 SWAP1 POP JUMP JUMPDEST PUSH2 0x97E DUP2 PUSH2 0x96B JUMP JUMPDEST DUP2 EQ PUSH2 0x989 JUMPI PUSH1 0x0 DUP1 REVERT JUMPDEST POP JUMP JUMPDEST PUSH1 0x0 DUP2 CALLDATALOAD SWAP1 POP PUSH2 0x99B DUP2 PUSH2 0x975 JUMP JUMPDEST SWAP3 SWAP2 POP POP JUMP JUMPDEST PUSH1 0x0 DUP1 REVERT JUMPDEST PUSH1 0x0 DUP1 REVERT JUMPDEST PUSH1 0x0 PUSH1 0x1F NOT PUSH1 0x1F DUP4 ADD AND SWAP1 POP SWAP2 SWAP1 POP JUMP JUMPDEST PUSH32 0x4E487B7100000000000000000000000000000000000000000000000000000000 PUSH1 0x0 MSTORE PUSH1 0x41 PUSH1 0x4 MSTORE PUSH1 0x24 PUSH1 0x0 REVERT JUMPDEST PUSH2 0x9F4 DUP3 PUSH2 0x9AB JUMP JUMPDEST DUP2 ADD DUP2 DUP2 LT PUSH8 0xFFFFFFFFFFFFFFFF DUP3 GT OR ISZERO PUSH2 0xA13 JUMPI PUSH2 0xA12 PUSH2 0x9BC JUMP JUMPDEST JUMPDEST DUP1 PUSH1 0x40 MSTORE POP POP POP JUMP JUMPDEST PUSH1 0x0 PUSH2 0xA26 PUSH2 0x957 JUMP JUMPDEST SWAP1 POP PUSH2 0xA32 DUP3 DUP3 PUSH2 0x9EB JUMP JUMPDEST SWAP2 SWAP1 POP JUMP JUMPDEST PUSH1 0x0 PUSH8 0xFFFFFFFFFFFFFFFF DUP3 GT ISZERO PUSH2 0xA52 JUMPI PUSH2 0xA51 PUSH2 0x9BC JUMP JUMPDEST JUMPDEST PUSH2 0xA5B DUP3 PUSH2 0x9AB JUMP JUMPDEST SWAP1 POP PUSH1 0x20 DUP2 ADD SWAP1 POP SWAP2 SWAP1 POP JUMP JUMPDEST DUP3 DUP2 DUP4 CALLDATACOPY PUSH1 0x0 DUP4 DUP4 ADD MSTORE POP POP POP JUMP JUMPDEST PUSH1 0x0 PUSH2 0xA8A PUSH2 0xA85 DUP5 PUSH2 0xA37 JUMP JUMPDEST PUSH2 0xA1C JUMP JUMPDEST SWAP1 POP DUP3 DUP2 MSTORE PUSH1 0x20 DUP2 ADD DUP5 DUP5 DUP5 ADD GT ISZERO PUSH2 0xAA6 JUMPI PUSH2 0xAA5 PUSH2 0x9A6 JUMP JUMPDEST JUMPDEST PUSH2 0xAB1 DUP5 DUP3 DUP6 PUSH2 0xA68 JUMP JUMPDEST POP SWAP4 SWAP3 POP POP POP JUMP JUMPDEST PUSH1 0x0 DUP3 PUSH1 0x1F DUP4 ADD SLT PUSH2 0xACE JUMPI PUSH2 0xACD PUSH2 0x9A1 JUMP JUMPDEST JUMPDEST DUP2 CALLDATALOAD PUSH2 0xADE DUP5 DUP3 PUSH1 0x20 DUP7 ADD PUSH2 0xA77 JUMP JUMPDEST SWAP2 POP POP SWAP3 SWAP2 POP POP JUMP JUMPDEST PUSH1 0x0 DUP1 PUSH1 0x40 DUP4 DUP6 SUB SLT ISZERO PUSH2 0xAFE JUMPI PUSH2 0xAFD PUSH2 0x961 JUMP JUMPDEST JUMPDEST PUSH1 0x0 PUSH2 0xB0C DUP6 DUP3 DUP7 ADD PUSH2 0x98C JUMP JUMPDEST SWAP3 POP POP PUSH1 0x20 DUP4 ADD CALLDATALOAD PUSH8 0xFFFFFFFFFFFFFFFF DUP2 GT ISZERO PUSH2 0xB2D JUMPI PUSH2 0xB2C PUSH2 0x966 JUMP JUMPDEST JUMPDEST PUSH2 0xB39 DUP6 DUP3 DUP7 ADD PUSH2 0xAB9 JUMP JUMPDEST SWAP2 POP POP SWAP3 POP SWAP3 SWAP1 POP JUMP JUMPDEST PUSH1 0x0 PUSH8 0xFFFFFFFFFFFFFFFF DUP3 GT ISZERO PUSH2 0xB5E JUMPI PUSH2 0xB5D PUSH2 0x9BC JUMP JUMPDEST JUMPDEST PUSH1 0x20 DUP3 MUL SWAP1 POP PUSH1 0x20 DUP2 ADD SWAP1 POP SWAP2 SWAP1 POP JUMP JUMPDEST PUSH1 0x0 DUP1 REVERT JUMPDEST PUSH1 0x0 PUSH2 0xB87 PUSH2 0xB82 DUP5 PUSH2 0xB43 JUMP JUMPDEST PUSH2 0xA1C JUMP JUMPDEST SWAP1 POP DUP1 DUP4 DUP3 MSTORE PUSH1 0x20 DUP3 ADD SWAP1 POP PUSH1 0x20 DUP5 MUL DUP4 ADD DUP6 DUP2 GT ISZERO PUSH2 0xBAA JUMPI PUSH2 0xBA9 PUSH2 0xB6F JUMP JUMPDEST JUMPDEST DUP4 JUMPDEST DUP2 DUP2 LT ISZERO PUSH2 0xBF1 JUMPI DUP1 CALLDATALOAD PUSH8 0xFFFFFFFFFFFFFFFF DUP2 GT ISZERO PUSH2 0xBCF JUMPI PUSH2 0xBCE PUSH2 0x9A1 JUMP JUMPDEST JUMPDEST DUP1 DUP7 ADD PUSH2 0xBDC DUP10 DUP3 PUSH2 0xAB9 JUMP JUMPDEST DUP6 MSTORE PUSH1 0x20 DUP6 ADD SWAP5 POP POP POP PUSH1 0x20 DUP2 ADD SWAP1 POP PUSH2 0xBAC JUMP JUMPDEST POP POP POP SWAP4 SWAP3 POP POP POP JUMP JUMPDEST PUSH1 0x0 DUP3 PUSH1 0x1F DUP4 ADD SLT PUSH2 0xC10 JUMPI PUSH2 0xC0F PUSH2 0x9A1 JUMP JUMPDEST JUMPDEST DUP2 CALLDATALOAD PUSH2 0xC20 DUP5 DUP3 PUSH1 0x20 DUP7 ADD PUSH2 0xB74 JUMP JUMPDEST SWAP2 POP POP SWAP3 SWAP2 POP POP JUMP JUMPDEST PUSH1 0x0 DUP1 PUSH1 0x0 DUP1 PUSH1 0x80 DUP6 DUP8 SUB SLT ISZERO PUSH2 0xC43 JUMPI PUSH2 0xC42 PUSH2 0x961 JUMP JUMPDEST JUMPDEST PUSH1 0x0 PUSH2 0xC51 DUP8 DUP3 DUP9 ADD PUSH2 0x98C JUMP JUMPDEST SWAP5 POP POP PUSH1 0x20 DUP6 ADD CALLDATALOAD PUSH8 0xFFFFFFFFFFFFFFFF DUP2 GT ISZERO PUSH2 0xC72 JUMPI PUSH2 0xC71 PUSH2 0x966 JUMP JUMPDEST JUMPDEST PUSH2 0xC7E DUP8 DUP3 DUP9 ADD PUSH2 0xBFB JUMP JUMPDEST SWAP4 POP POP PUSH1 0x40 DUP6 ADD CALLDATALOAD PUSH8 0xFFFFFFFFFFFFFFFF DUP2 GT ISZERO PUSH2 0xC9F JUMPI PUSH2 0xC9E PUSH2 0x966 JUMP JUMPDEST JUMPDEST PUSH2 0xCAB DUP8 DUP3 DUP9 ADD PUSH2 0xBFB JUMP JUMPDEST SWAP3 POP POP PUSH1 0x60 DUP6 ADD CALLDATALOAD PUSH8 0xFFFFFFFFFFFFFFFF DUP2 GT ISZERO PUSH2 0xCCC JUMPI PUSH2 0xCCB PUSH2 0x966 JUMP JUMPDEST JUMPDEST PUSH2 0xCD8 DUP8 DUP3 DUP9 ADD PUSH2 0xBFB JUMP JUMPDEST SWAP2 POP POP SWAP3 SWAP6 SWAP2 SWAP5 POP SWAP3 POP JUMP JUMPDEST PUSH1 0x0 DUP1 PUSH1 0x0 PUSH1 0x60 DUP5 DUP7 SUB SLT ISZERO PUSH2 0xCFD JUMPI PUSH2 0xCFC PUSH2 0x961 JUMP JUMPDEST JUMPDEST PUSH1 0x0 PUSH2 0xD0B DUP7 DUP3 DUP8 ADD PUSH2 0x98C JUMP JUMPDEST SWAP4 POP POP PUSH1 0x20 DUP5 ADD CALLDATALOAD PUSH8 0xFFFFFFFFFFFFFFFF DUP2 GT ISZERO PUSH2 0xD2C JUMPI PUSH2 0xD2B PUSH2 0x966 JUMP JUMPDEST JUMPDEST PUSH2 0xD38 DUP7 DUP3 DUP8 ADD PUSH2 0xAB9 JUMP JUMPDEST SWAP3 POP POP PUSH1 0x40 DUP5 ADD CALLDATALOAD PUSH8 0xFFFFFFFFFFFFFFFF DUP2 GT ISZERO PUSH2 0xD59 JUMPI PUSH2 0xD58 PUSH2 0x966 JUMP JUMPDEST JUMPDEST PUSH2 0xD65 DUP7 DUP3 DUP8 ADD PUSH2 0xBFB JUMP JUMPDEST SWAP2 POP POP SWAP3 POP SWAP3 POP SWAP3 JUMP JUMPDEST PUSH1 0x0 PUSH1 0x20 DUP3 DUP5 SUB SLT ISZERO PUSH2 0xD85 JUMPI PUSH2 0xD84 PUSH2 0x961 JUMP JUMPDEST JUMPDEST PUSH1 0x0 PUSH2 0xD93 DUP5 DUP3 DUP6 ADD PUSH2 0x98C JUMP JUMPDEST SWAP2 POP POP SWAP3 SWAP2 POP POP JUMP JUMPDEST PUSH2 0xDA5 DUP2 PUSH2 0x96B JUMP JUMPDEST DUP3 MSTORE POP POP JUMP JUMPDEST PUSH1 0x0 DUP2 MLOAD SWAP1 POP SWAP2 SWAP1 POP JUMP JUMPDEST PUSH1 0x0 DUP3 DUP3 MSTORE PUSH1 0x20 DUP3 ADD SWAP1 POP SWAP3 SWAP2 POP POP JUMP JUMPDEST PUSH1 0x0 DUP2 SWAP1 POP PUSH1 0x20 DUP3 ADD SWAP1 POP SWAP2 SWAP1 POP JUMP JUMPDEST PUSH1 0x0 DUP2 MLOAD SWAP1 POP SWAP2 SWAP1 POP JUMP JUMPDEST PUSH1 0x0 DUP3 DUP3 MSTORE PUSH1 0x20 DUP3 ADD SWAP1 POP SWAP3 SWAP2 POP POP JUMP JUMPDEST PUSH1 0x0 JUMPDEST DUP4 DUP2 LT ISZERO PUSH2 0xE11 JUMPI DUP1 DUP3 ADD MLOAD DUP2 DUP5 ADD MSTORE PUSH1 0x20 DUP2 ADD SWAP1 POP PUSH2 0xDF6 JUMP JUMPDEST PUSH1 0x0 DUP5 DUP5 ADD MSTORE POP POP POP POP JUMP JUMPDEST PUSH1 0x0 PUSH2 0xE28 DUP3 PUSH2 0xDD7 JUMP JUMPDEST PUSH2 0xE32 DUP2 DUP6 PUSH2 0xDE2 JUMP JUMPDEST SWAP4 POP PUSH2 0xE42 DUP2 DUP6 PUSH1 0x20 DUP7 ADD PUSH2 0xDF3 JUMP JUMPDEST PUSH2 0xE4B DUP2 PUSH2 0x9AB JUMP JUMPDEST DUP5 ADD SWAP2 POP POP SWAP3 SWAP2 POP POP JUMP JUMPDEST PUSH1 0x0 PUSH2 0xE62 DUP4 DUP4 PUSH2 0xE1D JUMP JUMPDEST SWAP1 POP SWAP3 SWAP2 POP POP JUMP JUMPDEST PUSH1 0x0 PUSH1 0x20 DUP3 ADD SWAP1 POP SWAP2 SWAP1 POP JUMP JUMPDEST PUSH1 0x0 PUSH2 0xE82 DUP3 PUSH2 0xDAB JUMP JUMPDEST PUSH2 0xE8C DUP2 DUP6 PUSH2 0xDB6 JUMP JUMPDEST SWAP4 POP DUP4 PUSH1 0x20 DUP3 MUL DUP6 ADD PUSH2 0xE9E DUP6 PUSH2 0xDC7 JUMP JUMPDEST DUP1 PUSH1 0x0 JUMPDEST DUP6 DUP2 LT ISZERO PUSH2 0xEDA JUMPI DUP5 DUP5 SUB DUP10 MSTORE DUP2 MLOAD PUSH2 0xEBB DUP6 DUP3 PUSH2 0xE56 JUMP JUMPDEST SWAP5 POP PUSH2 0xEC6 DUP4 PUSH2 0xE6A JUMP JUMPDEST SWAP3 POP PUSH1 0x20 DUP11 ADD SWAP10 POP POP PUSH1 0x1 DUP2 ADD SWAP1 POP PUSH2 0xEA2 JUMP JUMPDEST POP DUP3 SWAP8 POP DUP8 SWAP6 POP POP POP POP POP POP SWAP3 SWAP2 POP POP JUMP JUMPDEST PUSH1 0x0 PUSH1 0xA0 DUP3 ADD SWAP1 POP PUSH2 0xF01 PUSH1 0x0 DUP4 ADD DUP9 PUSH2 0xD9C JUMP JUMPDEST DUP2 DUP2 SUB PUSH1 0x20 DUP4 ADD MSTORE PUSH2 0xF13 DUP2 DUP8 PUSH2 0xE77 JUMP JUMPDEST SWAP1 POP DUP2 DUP2 SUB PUSH1 0x40 DUP4 ADD MSTORE PUSH2 0xF27 DUP2 DUP7 PUSH2 0xE77 JUMP JUMPDEST SWAP1 POP DUP2 DUP2 SUB PUSH1 0x60 DUP4 ADD MSTORE PUSH2 0xF3B DUP2 DUP6 PUSH2 0xE77 JUMP JUMPDEST SWAP1 POP DUP2 DUP2 SUB PUSH1 0x80 DUP4 ADD MSTORE PUSH2 0xF4F DUP2 DUP5 PUSH2 0xE77 JUMP JUMPDEST SWAP1 POP SWAP7 SWAP6 POP POP POP POP POP POP JUMP JUMPDEST PUSH1 0x0 DUP3 DUP3 MSTORE PUSH1 0x20 DUP3 ADD SWAP1 POP SWAP3 SWAP2 POP POP JUMP JUMPDEST PUSH32 0x4F72646572206E6F7420666F756E640000000000000000000000000000000000 PUSH1 0x0 DUP3 ADD MSTORE POP JUMP JUMPDEST PUSH1 0x0 PUSH2 0xFA2 PUSH1 0xF DUP4 PUSH2 0xF5B JUMP JUMPDEST SWAP2 POP PUSH2 0xFAD DUP3 PUSH2 0xF6C JUMP JUMPDEST PUSH1 0x20 DUP3 ADD SWAP1 POP SWAP2 SWAP1 POP JUMP JUMPDEST PUSH1 0x0 PUSH1 0x20 DUP3 ADD SWAP1 POP DUP2 DUP2 SUB PUSH1 0x0 DUP4 ADD MSTORE PUSH2 0xFD1 DUP2 PUSH2 0xF95 JUMP JUMPDEST SWAP1 POP SWAP2 SWAP1 POP JUMP JUMPDEST PUSH32 0x4E487B7100000000000000000000000000000000000000000000000000000000 PUSH1 0x0 MSTORE PUSH1 0x22 PUSH1 0x4 MSTORE PUSH1 0x24 PUSH1 0x0 REVERT JUMPDEST PUSH1 0x0 PUSH1 0x2 DUP3 DIV SWAP1 POP PUSH1 0x1 DUP3 AND DUP1 PUSH2 0x101F JUMPI PUSH1 0x7F DUP3 AND SWAP2 POP JUMPDEST PUSH1 0x20 DUP3 LT DUP2 SUB PUSH2 0x1032 JUMPI PUSH2 0x1031 PUSH2 0xFD8 JUMP JUMPDEST JUMPDEST POP SWAP2 SWAP1 POP JUMP JUMPDEST PUSH1 0x0 DUP2 SWAP1 POP DUP2 PUSH1 0x0 MSTORE PUSH1 0x20 PUSH1 0x0 KECCAK256 SWAP1 POP SWAP2 SWAP1 POP JUMP JUMPDEST PUSH1 0x0 PUSH1 0x20 PUSH1 0x1F DUP4 ADD DIV SWAP1 POP SWAP2 SWAP1 POP JUMP JUMPDEST PUSH1 0x0 DUP3 DUP3 SHL SWAP1 POP SWAP3 SWAP2 POP POP JUMP JUMPDEST PUSH1 0x0 PUSH1 0x8 DUP4 MUL PUSH2 0x109A PUSH32 0xFFFFFFFFFFFFFFFFFFFFFFFFFFFFFFFFFFFFFFFFFFFFFFFFFFFFFFFFFFFFFFFF DUP3 PUSH2 0x105D JUMP JUMPDEST PUSH2 0x10A4 DUP7 DUP4 PUSH2 0x105D JUMP JUMPDEST SWAP6 POP DUP1 NOT DUP5 AND SWAP4 POP DUP1 DUP7 AND DUP5 OR SWAP3 POP POP POP SWAP4 SWAP3 POP POP POP JUMP JUMPDEST PUSH1 0x0 DUP2 SWAP1 POP SWAP2 SWAP1 POP JUMP JUMPDEST PUSH1 0x0 PUSH2 0x10E1 PUSH2 0x10DC PUSH2 0x10D7 DUP5 PUSH2 0x96B JUMP JUMPDEST PUSH2 0x10BC JUMP JUMPDEST PUSH2 0x96B JUMP JUMPDEST SWAP1 POP SWAP2 SWAP1 POP JUMP JUMPDEST PUSH1 0x0 DUP2 SWAP1 POP SWAP2 SWAP1 POP JUMP JUMPDEST PUSH2 0x10FB DUP4 PUSH2 0x10C6 JUMP JUMPDEST PUSH2 0x110F PUSH2 0x1107 DUP3 PUSH2 0x10E8 JUMP JUMPDEST DUP5 DUP5 SLOAD PUSH2 0x106A JUMP JUMPDEST DUP3 SSTORE POP POP POP POP JUMP JUMPDEST PUSH1 0x0 SWAP1 JUMP JUMPDEST PUSH2 0x1124 PUSH2 0x1117 JUMP JUMPDEST PUSH2 0x112F DUP2 DUP5 DUP5 PUSH2 0x10F2 JUMP JUMPDEST POP POP POP JUMP JUMPDEST JUMPDEST DUP2 DUP2 LT ISZERO PUSH2 0x1153 JUMPI PUSH2 0x1148 PUSH1 0x0 DUP3 PUSH2 0x111C JUMP JUMPDEST PUSH1 0x1 DUP2 ADD SWAP1 POP PUSH2 0x1135 JUMP JUMPDEST POP POP JUMP JUMPDEST PUSH1 0x1F DUP3 GT ISZERO PUSH2 0x1198 JUMPI PUSH2 0x1169 DUP2 PUSH2 0x1038 JUMP JUMPDEST PUSH2 0x1172 DUP5 PUSH2 0x104D JUMP JUMPDEST DUP2 ADD PUSH1 0x20 DUP6 LT ISZERO PUSH2 0x1181 JUMPI DUP2 SWAP1 POP JUMPDEST PUSH2 0x1195 PUSH2 0x118D DUP6 PUSH2 0x104D JUMP JUMPDEST DUP4 ADD DUP3 PUSH2 0x1134 JUMP JUMPDEST POP POP JUMPDEST POP POP POP JUMP JUMPDEST PUSH1 0x0 DUP3 DUP3 SHR SWAP1 POP SWAP3 SWAP2 POP POP JUMP JUMPDEST PUSH1 0x0 PUSH2 0x11BB PUSH1 0x0 NOT DUP5 PUSH1 0x8 MUL PUSH2 0x119D JUMP JUMPDEST NOT DUP1 DUP4 AND SWAP2 POP POP SWAP3 SWAP2 POP POP JUMP JUMPDEST PUSH1 0x0 PUSH2 0x11D4 DUP4 DUP4 PUSH2 0x11AA JUMP JUMPDEST SWAP2 POP DUP3 PUSH1 0x2 MUL DUP3 OR SWAP1 POP SWAP3 SWAP2 POP POP JUMP JUMPDEST PUSH2 0x11ED DUP3 PUSH2 0xDD7 JUMP JUMPDEST PUSH8 0xFFFFFFFFFFFFFFFF DUP2 GT ISZERO PUSH2 0x1206 JUMPI PUSH2 0x1205 PUSH2 0x9BC JUMP JUMPDEST JUMPDEST PUSH2 0x1210 DUP3 SLOAD PUSH2 0x1007 JUMP JUMPDEST PUSH2 0x121B DUP3 DUP3 DUP6 PUSH2 0x1157 JUMP JUMPDEST PUSH1 0x0 PUSH1 0x20 SWAP1 POP PUSH1 0x1F DUP4 GT PUSH1 0x1 DUP2 EQ PUSH2 0x124E JUMPI PUSH1 0x0 DUP5 ISZERO PUSH2 0x123C JUMPI DUP3 DUP8 ADD MLOAD SWAP1 POP JUMPDEST PUSH2 0x1246 DUP6 DUP3 PUSH2 0x11C8 JUMP JUMPDEST DUP7 SSTORE POP PUSH2 0x12AE JUMP JUMPDEST PUSH1 0x1F NOT DUP5 AND PUSH2 0x125C DUP7 PUSH2 0x1038 JUMP JUMPDEST PUSH1 0x0 JUMPDEST DUP3 DUP2 LT ISZERO PUSH2 0x1284 JUMPI DUP5 DUP10 ADD MLOAD DUP3 SSTORE PUSH1 0x1 DUP3 ADD SWAP2 POP PUSH1 0x20 DUP6 ADD SWAP5 POP PUSH1 0x20 DUP2 ADD SWAP1 POP PUSH2 0x125F JUMP JUMPDEST DUP7 DUP4 LT ISZERO PUSH2 0x12A1 JUMPI DUP5 DUP10 ADD MLOAD PUSH2 0x129D PUSH1 0x1F DUP10 AND DUP3 PUSH2 0x11AA JUMP JUMPDEST DUP4 SSTORE POP JUMPDEST PUSH1 0x1 PUSH1 0x2 DUP9 MUL ADD DUP9 SSTORE POP POP POP JUMPDEST POP POP POP POP POP POP JUMP JUMPDEST PUSH1 0x0 PUSH2 0x12C1 DUP3 PUSH2 0xDD7 JUMP JUMPDEST PUSH2 0x12CB DUP2 DUP6 PUSH2 0xF5B JUMP JUMPDEST SWAP4 POP PUSH2 0x12DB DUP2 DUP6 PUSH1 0x20 DUP7 ADD PUSH2 0xDF3 JUMP JUMPDEST PUSH2 0x12E4 DUP2 PUSH2 0x9AB JUMP JUMPDEST DUP5 ADD SWAP2 POP POP SWAP3 SWAP2 POP POP JUMP JUMPDEST PUSH1 0x0 PUSH1 0x40 DUP3 ADD SWAP1 POP PUSH2 0x1304 PUSH1 0x0 DUP4 ADD DUP6 PUSH2 0xD9C JUMP JUMPDEST DUP2 DUP2 SUB PUSH1 0x20 DUP4 ADD MSTORE PUSH2 0x1316 DUP2 DUP5 PUSH2 0x12B6 JUMP JUMPDEST SWAP1 POP SWAP4 SWAP3 POP POP POP JUMP JUMPDEST PUSH1 0x0 PUSH1 0x60 DUP3 ADD SWAP1 POP PUSH2 0x1334 PUSH1 0x0 DUP4 ADD DUP7 PUSH2 0xD9C JUMP JUMPDEST DUP2 DUP2 SUB PUSH1 0x20 DUP4 ADD MSTORE PUSH2 0x1346 DUP2 DUP6 PUSH2 0xE77 JUMP JUMPDEST SWAP1 POP DUP2 DUP2 SUB PUSH1 0x40 DUP4 ADD MSTORE PUSH2 0x135A DUP2 DUP5 PUSH2 0xE77 JUMP JUMPDEST SWAP1 POP SWAP5 SWAP4 POP POP POP POP JUMP JUMPDEST PUSH32 0x4E487B7100000000000000000000000000000000000000000000000000000000 PUSH1 0x0 MSTORE PUSH1 0x32 PUSH1 0x4 MSTORE PUSH1 0x24 PUSH1 0x0 REVERT JUMPDEST PUSH1 0x0 PUSH1 0x60 DUP3 ADD SWAP1 POP PUSH2 0x13A8 PUSH1 0x0 DUP4 ADD DUP7 PUSH2 0xD9C JUMP JUMPDEST DUP2 DUP2 SUB PUSH1 0x20 DUP4 ADD MSTORE PUSH2 0x13BA DUP2 DUP6 PUSH2 0x12B6 JUMP JUMPDEST SWAP1 POP DUP2 DUP2 SUB PUSH1 0x40 DUP4 ADD MSTORE PUSH2 0x13CE DUP2 DUP5 PUSH2 0xE77 JUMP JUMPDEST SWAP1 POP SWAP5 SWAP4 POP POP POP POP JUMP INVALID LOG2 PUSH5 0x6970667358 0x22 SLT KECCAK256 DUP14 0xAC PUSH20 0xCF46A6A3E2CC2AD0C9ECCB9E02C6B37F87C9E441 PUSH19 0xAC538746A652FECB64736F6C634300081A0033 "
		},
		"gasEstimates": {
			"creation": {
				"codeDepositCost": "1026800",
				"executionCost": "1067",
				"totalCost": "1027867"
			},
			"external": {
				"addOrder(uint256,string[],string[],string[])": "infinite",
				"getOrder(uint256)": "infinite",
				"pushToHistory(uint256,string)": "infinite",
				"pushToHistoryMaterial(uint256,string,string[])": "infinite"
			}
		},
		"methodIdentifiers": {
			"addOrder(uint256,string[],string[],string[])": "5c3eeff4",
			"getOrder(uint256)": "d09ef241",
			"pushToHistory(uint256,string)": "5189103e",
			"pushToHistoryMaterial(uint256,string,string[])": "729d25ee"
		}
	},
	"abi": [
		{
			"anonymous": false,
			"inputs": [
				{
					"indexed": false,
					"internalType": "uint256",
					"name": "orderId",
					"type": "uint256"
				},
				{
					"indexed": false,
					"internalType": "string",
					"name": "historyEntry",
					"type": "string"
				}
			],
			"name": "HistoryAdded",
			"type": "event"
		},
		{
			"anonymous": false,
			"inputs": [
				{
					"indexed": false,
					"internalType": "uint256",
					"name": "orderId",
					"type": "uint256"
				},
				{
					"indexed": false,
					"internalType": "string",
					"name": "historyEntry",
					"type": "string"
				},
				{
					"indexed": false,
					"internalType": "string[]",
					"name": "materialEntry",
					"type": "string[]"
				}
			],
			"name": "HistoryAddedMaterial",
			"type": "event"
		},
		{
			"anonymous": false,
			"inputs": [
				{
					"indexed": false,
					"internalType": "uint256",
					"name": "orderId",
					"type": "uint256"
				},
				{
					"indexed": false,
					"internalType": "string[]",
					"name": "productList",
					"type": "string[]"
				},
				{
					"indexed": false,
					"internalType": "string[]",
					"name": "history",
					"type": "string[]"
				}
			],
			"name": "OrderCreated",
			"type": "event"
		},
		{
			"inputs": [
				{
					"internalType": "uint256",
					"name": "_orderId",
					"type": "uint256"
				},
				{
					"internalType": "string[]",
					"name": "_productList",
					"type": "string[]"
				},
				{
					"internalType": "string[]",
					"name": "_history",
					"type": "string[]"
				},
				{
					"internalType": "string[]",
					"name": "_po",
					"type": "string[]"
				}
			],
			"name": "addOrder",
			"outputs": [],
			"stateMutability": "nonpayable",
			"type": "function"
		},
		{
			"inputs": [
				{
					"internalType": "uint256",
					"name": "_orderId",
					"type": "uint256"
				}
			],
			"name": "getOrder",
			"outputs": [
				{
					"internalType": "uint256",
					"name": "",
					"type": "uint256"
				},
				{
					"internalType": "string[]",
					"name": "",
					"type": "string[]"
				},
				{
					"internalType": "string[]",
					"name": "",
					"type": "string[]"
				},
				{
					"internalType": "string[]",
					"name": "",
					"type": "string[]"
				},
				{
					"internalType": "string[]",
					"name": "",
					"type": "string[]"
				}
			],
			"stateMutability": "view",
			"type": "function"
		},
		{
			"inputs": [
				{
					"internalType": "uint256",
					"name": "_orderId",
					"type": "uint256"
				},
				{
					"internalType": "string",
					"name": "_historyEntry",
					"type": "string"
				}
			],
			"name": "pushToHistory",
			"outputs": [],
			"stateMutability": "nonpayable",
			"type": "function"
		},
		{
			"inputs": [
				{
					"internalType": "uint256",
					"name": "_orderId",
					"type": "uint256"
				},
				{
					"internalType": "string",
					"name": "_historyEntry",
					"type": "string"
				},
				{
					"internalType": "string[]",
					"name": "_materialEntry",
					"type": "string[]"
				}
			],
			"name": "pushToHistoryMaterial",
			"outputs": [],
			"stateMutability": "nonpayable",
			"type": "function"
		}
	]
}