{
	"data": {
		"bytecode": {
			"linkReferences": {},
			"object": "6080604052348015600f57600080fd5b506124e78061001f6000396000f3fe608060405234801561001057600080fd5b50600436106100a85760003560e01c80637dfc15bf116100715780637dfc15bf146101505780637f7d14de1461016c5780639391162014610188578063b0ef7554146101a4578063d09ef241146101c0578063f53f91a1146101f6576100a8565b8062b4ace6146100ad5780633cb525c7146100e05780635189103e146100fc5780636e16290d14610118578063759c283e14610134575b600080fd5b6100c760048036038101906100c29190611518565b610212565b6040516100d794939291906116f0565b60405180910390f35b6100fa60048036038101906100f59190611878565b610436565b005b61011660048036038101906101119190611878565b61051d565b005b610132600480360381019061012d91906118d4565b6106a1565b005b61014e60048036038101906101499190611a59565b6106f8565b005b61016a60048036038101906101659190611b44565b6108d1565b005b61018660048036038101906101819190611878565b610a4e565b005b6101a2600480360381019061019d9190611878565b610b2b565b005b6101be60048036038101906101b99190611c72565b610be3565b005b6101da60048036038101906101d59190611518565b610db8565b6040516101ed9796959493929190611da0565b60405180910390f35b610210600480360381019061020b9190611878565b61130b565b005b6000806060806000600160008781526020019081526020016000206000015403610271576040517f08c379a000000000000000000000000000000000000000000000000000000000815260040161026890611e85565b60405180910390fd5b600060016000878152602001908152602001600020604051806080016040529081600082015481526020016001820154815260200160028201805480602002602001604051908101604052809291908181526020016000905b828210156103765783829060005260206000200180546102e990611ed4565b80601f016020809104026020016040519081016040528092919081815260200182805461031590611ed4565b80156103625780601f1061033757610100808354040283529160200191610362565b820191906000526020600020905b81548152906001019060200180831161034557829003601f168201915b5050505050815260200190600101906102ca565b50505050815260200160038201805461038e90611ed4565b80601f01602080910402602001604051908101604052809291908181526020018280546103ba90611ed4565b80156104075780601f106103dc57610100808354040283529160200191610407565b820191906000526020600020905b8154815290600101906020018083116103ea57829003601f168201915b505050505081525050905080600001518160200151826040015183606001519450945094509450509193509193565b6000806000848152602001908152602001600020600001540361048e576040517f08c379a000000000000000000000000000000000000000000000000000000000815260040161048590611f51565b60405180910390fd5b600081511461051957600080838152602001908152602001600020600601819080600181540180825580915050600190039060005260206000200160009091909190915090816104de919061211d565b507f87661ea3b8c60e0c894323756e7a6621bba6febb0d52180bd9495551006b8db882826040516105109291906121ef565b60405180910390a15b5050565b60008060008481526020019081526020016000206000015403610575576040517f08c379a000000000000000000000000000000000000000000000000000000000815260040161056c90611f51565b60405180910390fd5b6000806000848152602001908152602001600020600401905060005b818054905081101561069b57826040516020016105ae919061225b565b604051602081830303815290604052805190602001208282815481106105d7576105d6612272565b5b906000526020600020016040516020016105f19190612324565b604051602081830303815290604052805190602001201461068e5760008085815260200190815260200160002060040183908060018154018082558091505060019003906000526020600020016000909190919091509081610653919061211d565b507f43ebb29c5825dc21dd53ce082c92fe1694fc7f706bef05f794db38fd50e91c4284846040516106859291906121ef565b60405180910390a15b8080600101915050610591565b50505050565b6106ab8483610436565b6106b5838261130b565b7f04be0710f8054d6bcc8f7b169dc04db82622f2860de2f1450e5dd095e974a4a2848484846040516106ea949392919061233b565b60405180910390a150505050565b60006040518060e00160405280878152602001868152602001600067ffffffffffffffff81111561072c5761072b61174d565b5b60405190808252806020026020018201604052801561075f57816020015b606081526020019060019003908161074a5790505b508152602001600067ffffffffffffffff8111156107805761077f61174d565b5b6040519080825280601f01601f1916602001820160405280156107b25781602001600182028036833780820191505090505b508152602001858152602001838152602001848152509050806000808881526020019081526020016000206000820151816000015560208201518160010190805190602001906108039291906113f4565b5060408201518160020190805190602001906108209291906113f4565b506060820151816003019081610836919061211d565b5060808201518160040190805190602001906108539291906113f4565b5060a0820151816005019081610869919061211d565b5060c08201518160060190805190602001906108869291906113f4565b509050507f8b0ebef86da41d30d01ab6fc1b0c15abc551924faba94463b120d0a5496ac08886868686866040516108c195949392919061238e565b60405180910390a1505050505050565b6000604051806080016040528088815260200189815260200187815260200186815250905080600160008981526020019081526020016000206000820151816000015560208201518160010155604082015181600201908051906020019061093a9291906113f4565b506060820151816003019081610950919061211d565b509050507f2b46c5a9abb122374aef1276ffd741f67eeff4f946e37797e0351f87d97c56ef8888888860405161098994939291906116f0565b60405180910390a160008060008a815260200190815260200160002060000154036109e9576040517f08c379a00000000000000000000000000000000000000000000000000000000081526004016109e090611f51565b60405180910390fd5b6109f38884610436565b6109fd888361051d565b610a078885610b2b565b7f45e79be367db1c377fb15ca9edab8004706304374ea19e4b45b01e55a205841088848685604051610a3c94939291906123fd565b60405180910390a15050505050505050565b60008060008481526020019081526020016000206000015403610aa6576040517f08c379a0000000000000000000000000000000000000000000000000000000008152600401610a9d90611f51565b60405180910390fd5b60008083815260200190815260200160002060020181908060018154018082558091505060019003906000526020600020016000909190919091509081610aed919061211d565b507ff5b4def5973d014960ead91323c90ae13e6dd9fc1b7eed2de3a4dccf2422ecbe8282604051610b1f9291906121ef565b60405180910390a15050565b60008060008481526020019081526020016000206000015403610b83576040517f08c379a0000000000000000000000000000000000000000000000000000000008152600401610b7a90611f51565b60405180910390fd5b806000808481526020019081526020016000206003019081610ba5919061211d565b507f486601f39a7566d6437506ce18dd3f9016302318a1a72515bdb8835a7c1fef5d8282604051610bd79291906121ef565b60405180910390a15050565b60006040518060800160405280888152602001898152602001878152602001868152509050806001600089815260200190815260200160002060008201518160000155602082015181600101556040820151816002019080519060200190610c4c9291906113f4565b506060820151816003019081610c62919061211d565b509050507f2b46c5a9abb122374aef1276ffd741f67eeff4f946e37797e0351f87d97c56ef88888888604051610c9b94939291906116f0565b60405180910390a160008060008a81526020019081526020016000206000015403610cfb576040517f08c379a0000000000000000000000000000000000000000000000000000000008152600401610cf290611f51565b60405180910390fd5b610d05888461051d565b610d0f8883610436565b60005b8451811015610d70576000858281518110610d3057610d2f612272565b5b60200260200101515114610d6357610d6289868381518110610d5557610d54612272565b5b6020026020010151610a4e565b5b8080600101915050610d12565b507f07d6476fe1fc582a694507f0924ca15dedef3f7807fb680d3a0328f9e79ecef388848487604051610da69493929190612457565b60405180910390a15050505050505050565b600060608060608060608060008060008a81526020019081526020016000206000015403610e1b576040517f08c379a0000000000000000000000000000000000000000000000000000000008152600401610e1290611f51565b60405180910390fd5b60008060008a81526020019081526020016000206040518060e00160405290816000820154815260200160018201805480602002602001604051908101604052809291908181526020016000905b82821015610f15578382906000526020600020018054610e8890611ed4565b80601f0160208091040260200160405190810160405280929190818152602001828054610eb490611ed4565b8015610f015780601f10610ed657610100808354040283529160200191610f01565b820191906000526020600020905b815481529060010190602001808311610ee457829003601f168201915b505050505081526020019060010190610e69565b50505050815260200160028201805480602002602001604051908101604052809291908181526020016000905b82821015610fee578382906000526020600020018054610f6190611ed4565b80601f0160208091040260200160405190810160405280929190818152602001828054610f8d90611ed4565b8015610fda5780601f10610faf57610100808354040283529160200191610fda565b820191906000526020600020905b815481529060010190602001808311610fbd57829003601f168201915b505050505081526020019060010190610f42565b50505050815260200160038201805461100690611ed4565b80601f016020809104026020016040519081016040528092919081815260200182805461103290611ed4565b801561107f5780601f106110545761010080835404028352916020019161107f565b820191906000526020600020905b81548152906001019060200180831161106257829003601f168201915b5050505050815260200160048201805480602002602001604051908101604052809291908181526020016000905b828210156111595783829060005260206000200180546110cc90611ed4565b80601f01602080910402602001604051908101604052809291908181526020018280546110f890611ed4565b80156111455780601f1061111a57610100808354040283529160200191611145565b820191906000526020600020905b81548152906001019060200180831161112857829003601f168201915b5050505050815260200190600101906110ad565b50505050815260200160058201805461117190611ed4565b80601f016020809104026020016040519081016040528092919081815260200182805461119d90611ed4565b80156111ea5780601f106111bf576101008083540402835291602001916111ea565b820191906000526020600020905b8154815290600101906020018083116111cd57829003601f168201915b5050505050815260200160068201805480602002602001604051908101604052809291908181526020016000905b828210156112c457838290600052602060002001805461123790611ed4565b80601f016020809104026020016040519081016040528092919081815260200182805461126390611ed4565b80156112b05780601f10611285576101008083540402835291602001916112b0565b820191906000526020600020905b81548152906001019060200180831161129357829003601f168201915b505050505081526020019060010190611218565b5050505081525050905080600001518160200151826080015183604001518460c0015185606001518660a00151975097509750975097509750975050919395979092949650565b6000600160008481526020019081526020016000206001015403611364576040517f08c379a000000000000000000000000000000000000000000000000000000000815260040161135b90611e85565b60405180910390fd5b60008151146113f05760016000838152602001908152602001600020600201819080600181540180825580915050600190039060005260206000200160009091909190915090816113b5919061211d565b507f11913cde77209fad0b0ce2121c4ee0a95f4bb323daecc763c5c783dbf03d79bc82826040516113e79291906121ef565b60405180910390a15b5050565b82805482825590600052602060002090810192821561143c579160200282015b8281111561143b57825182908161142b919061211d565b5091602001919060010190611414565b5b509050611449919061144d565b5090565b5b8082111561146d57600081816114649190611471565b5060010161144e565b5090565b50805461147d90611ed4565b6000825580601f1061148f57506114ae565b601f0160209004906000526020600020908101906114ad91906114b1565b5b50565b5b808211156114ca5760008160009055506001016114b2565b5090565b6000604051905090565b600080fd5b600080fd5b6000819050919050565b6114f5816114e2565b811461150057600080fd5b50565b600081359050611512816114ec565b92915050565b60006020828403121561152e5761152d6114d8565b5b600061153c84828501611503565b91505092915050565b61154e816114e2565b82525050565b600081519050919050565b600082825260208201905092915050565b6000819050602082019050919050565b600081519050919050565b600082825260208201905092915050565b60005b838110156115ba57808201518184015260208101905061159f565b60008484015250505050565b6000601f19601f8301169050919050565b60006115e282611580565b6115ec818561158b565b93506115fc81856020860161159c565b611605816115c6565b840191505092915050565b600061161c83836115d7565b905092915050565b6000602082019050919050565b600061163c82611554565b611646818561155f565b93508360208202850161165885611570565b8060005b8581101561169457848403895281516116758582611610565b945061168083611624565b925060208a0199505060018101905061165c565b50829750879550505050505092915050565b600082825260208201905092915050565b60006116c282611580565b6116cc81856116a6565b93506116dc81856020860161159c565b6116e5816115c6565b840191505092915050565b60006080820190506117056000830187611545565b6117126020830186611545565b81810360408301526117248185611631565b9050818103606083015261173881846116b7565b905095945050505050565b600080fd5b600080fd5b7f4e487b7100000000000000000000000000000000000000000000000000000000600052604160045260246000fd5b611785826115c6565b810181811067ffffffffffffffff821117156117a4576117a361174d565b5b80604052505050565b60006117b76114ce565b90506117c3828261177c565b919050565b600067ffffffffffffffff8211156117e3576117e261174d565b5b6117ec826115c6565b9050602081019050919050565b82818337600083830152505050565b600061181b611816846117c8565b6117ad565b90508281526020810184848401111561183757611836611748565b5b6118428482856117f9565b509392505050565b600082601f83011261185f5761185e611743565b5b813561186f848260208601611808565b91505092915050565b6000806040838503121561188f5761188e6114d8565b5b600061189d85828601611503565b925050602083013567ffffffffffffffff8111156118be576118bd6114dd565b5b6118ca8582860161184a565b9150509250929050565b600080600080608085870312156118ee576118ed6114d8565b5b60006118fc87828801611503565b945050602061190d87828801611503565b935050604085013567ffffffffffffffff81111561192e5761192d6114dd565b5b61193a8782880161184a565b925050606085013567ffffffffffffffff81111561195b5761195a6114dd565b5b6119678782880161184a565b91505092959194509250565b600067ffffffffffffffff82111561198e5761198d61174d565b5b602082029050602081019050919050565b600080fd5b60006119b76119b284611973565b6117ad565b905080838252602082019050602084028301858111156119da576119d961199f565b5b835b81811015611a2157803567ffffffffffffffff8111156119ff576119fe611743565b5b808601611a0c898261184a565b855260208501945050506020810190506119dc565b5050509392505050565b600082601f830112611a4057611a3f611743565b5b8135611a508482602086016119a4565b91505092915050565b600080600080600060a08688031215611a7557611a746114d8565b5b6000611a8388828901611503565b955050602086013567ffffffffffffffff811115611aa457611aa36114dd565b5b611ab088828901611a2b565b945050604086013567ffffffffffffffff811115611ad157611ad06114dd565b5b611add88828901611a2b565b935050606086013567ffffffffffffffff811115611afe57611afd6114dd565b5b611b0a88828901611a2b565b925050608086013567ffffffffffffffff811115611b2b57611b2a6114dd565b5b611b378882890161184a565b9150509295509295909350565b600080600080600080600060e0888a031215611b6357611b626114d8565b5b6000611b718a828b01611503565b9750506020611b828a828b01611503565b965050604088013567ffffffffffffffff811115611ba357611ba26114dd565b5b611baf8a828b01611a2b565b955050606088013567ffffffffffffffff811115611bd057611bcf6114dd565b5b611bdc8a828b0161184a565b945050608088013567ffffffffffffffff811115611bfd57611bfc6114dd565b5b611c098a828b0161184a565b93505060a088013567ffffffffffffffff811115611c2a57611c296114dd565b5b611c368a828b0161184a565b92505060c088013567ffffffffffffffff811115611c5757611c566114dd565b5b611c638a828b0161184a565b91505092959891949750929550565b600080600080600080600060e0888a031215611c9157611c906114d8565b5b6000611c9f8a828b01611503565b9750506020611cb08a828b01611503565b965050604088013567ffffffffffffffff811115611cd157611cd06114dd565b5b611cdd8a828b01611a2b565b955050606088013567ffffffffffffffff811115611cfe57611cfd6114dd565b5b611d0a8a828b0161184a565b945050608088013567ffffffffffffffff811115611d2b57611d2a6114dd565b5b611d378a828b01611a2b565b93505060a088013567ffffffffffffffff811115611d5857611d576114dd565b5b611d648a828b0161184a565b92505060c088013567ffffffffffffffff811115611d8557611d846114dd565b5b611d918a828b0161184a565b91505092959891949750929550565b600060e082019050611db5600083018a611545565b8181036020830152611dc78189611631565b90508181036040830152611ddb8188611631565b90508181036060830152611def8187611631565b90508181036080830152611e038186611631565b905081810360a0830152611e1781856116b7565b905081810360c0830152611e2b81846116b7565b905098975050505050505050565b7f5375624f72646572206e6f7420666f756e640000000000000000000000000000600082015250565b6000611e6f6012836116a6565b9150611e7a82611e39565b602082019050919050565b60006020820190508181036000830152611e9e81611e62565b9050919050565b7f4e487b7100000000000000000000000000000000000000000000000000000000600052602260045260246000fd5b60006002820490506001821680611eec57607f821691505b602082108103611eff57611efe611ea5565b5b50919050565b7f4f72646572206e6f7420666f756e640000000000000000000000000000000000600082015250565b6000611f3b600f836116a6565b9150611f4682611f05565b602082019050919050565b60006020820190508181036000830152611f6a81611f2e565b9050919050565b60008190508160005260206000209050919050565b60006020601f8301049050919050565b600082821b905092915050565b600060088302611fd37fffffffffffffffffffffffffffffffffffffffffffffffffffffffffffffffff82611f96565b611fdd8683611f96565b95508019841693508086168417925050509392505050565b6000819050919050565b600061201a612015612010846114e2565b611ff5565b6114e2565b9050919050565b6000819050919050565b61203483611fff565b61204861204082612021565b848454611fa3565b825550505050565b600090565b61205d612050565b61206881848461202b565b505050565b5b8181101561208c57612081600082612055565b60018101905061206e565b5050565b601f8211156120d1576120a281611f71565b6120ab84611f86565b810160208510156120ba578190505b6120ce6120c685611f86565b83018261206d565b50505b505050565b600082821c905092915050565b60006120f4600019846008026120d6565b1980831691505092915050565b600061210d83836120e3565b9150826002028217905092915050565b61212682611580565b67ffffffffffffffff81111561213f5761213e61174d565b5b6121498254611ed4565b612154828285612090565b600060209050601f8311600181146121875760008415612175578287015190505b61217f8582612101565b8655506121e7565b601f19841661219586611f71565b60005b828110156121bd57848901518255600182019150602085019450602081019050612198565b868310156121da57848901516121d6601f8916826120e3565b8355505b6001600288020188555050505b505050505050565b60006040820190506122046000830185611545565b818103602083015261221681846116b7565b90509392505050565b600081905092915050565b600061223582611580565b61223f818561221f565b935061224f81856020860161159c565b80840191505092915050565b6000612267828461222a565b915081905092915050565b7f4e487b7100000000000000000000000000000000000000000000000000000000600052603260045260246000fd5b600081546122ae81611ed4565b6122b8818661221f565b945060018216600081146122d357600181146122e85761231b565b60ff198316865281151582028601935061231b565b6122f185611f71565b60005b83811015612313578154818901526001820191506020810190506122f4565b838801955050505b50505092915050565b600061233082846122a1565b915081905092915050565b60006080820190506123506000830187611545565b61235d6020830186611545565b818103604083015261236f81856116b7565b9050818103606083015261238381846116b7565b905095945050505050565b600060a0820190506123a36000830188611545565b81810360208301526123b58187611631565b905081810360408301526123c98186611631565b905081810360608301526123dd8185611631565b905081810360808301526123f181846116b7565b90509695505050505050565b60006080820190506124126000830187611545565b818103602083015261242481866116b7565b9050818103604083015261243881856116b7565b9050818103606083015261244c81846116b7565b905095945050505050565b600060808201905061246c6000830187611545565b818103602083015261247e81866116b7565b9050818103604083015261249281856116b7565b905081810360608301526124a68184611631565b90509594505050505056fea26469706673582212208f202ad82fae8f90cc0e26e38d96f41aae475ec6a1caa3b2c8e210e37e7dc38164736f6c634300081a0033",
			"opcodes": "PUSH1 0x80 PUSH1 0x40 MSTORE CALLVALUE DUP1 ISZERO PUSH1 0xF JUMPI PUSH1 0x0 DUP1 REVERT JUMPDEST POP PUSH2 0x24E7 DUP1 PUSH2 0x1F PUSH1 0x0 CODECOPY PUSH1 0x0 RETURN INVALID PUSH1 0x80 PUSH1 0x40 MSTORE CALLVALUE DUP1 ISZERO PUSH2 0x10 JUMPI PUSH1 0x0 DUP1 REVERT JUMPDEST POP PUSH1 0x4 CALLDATASIZE LT PUSH2 0xA8 JUMPI PUSH1 0x0 CALLDATALOAD PUSH1 0xE0 SHR DUP1 PUSH4 0x7DFC15BF GT PUSH2 0x71 JUMPI DUP1 PUSH4 0x7DFC15BF EQ PUSH2 0x150 JUMPI DUP1 PUSH4 0x7F7D14DE EQ PUSH2 0x16C JUMPI DUP1 PUSH4 0x93911620 EQ PUSH2 0x188 JUMPI DUP1 PUSH4 0xB0EF7554 EQ PUSH2 0x1A4 JUMPI DUP1 PUSH4 0xD09EF241 EQ PUSH2 0x1C0 JUMPI DUP1 PUSH4 0xF53F91A1 EQ PUSH2 0x1F6 JUMPI PUSH2 0xA8 JUMP JUMPDEST DUP1 PUSH3 0xB4ACE6 EQ PUSH2 0xAD JUMPI DUP1 PUSH4 0x3CB525C7 EQ PUSH2 0xE0 JUMPI DUP1 PUSH4 0x5189103E EQ PUSH2 0xFC JUMPI DUP1 PUSH4 0x6E16290D EQ PUSH2 0x118 JUMPI DUP1 PUSH4 0x759C283E EQ PUSH2 0x134 JUMPI JUMPDEST PUSH1 0x0 DUP1 REVERT JUMPDEST PUSH2 0xC7 PUSH1 0x4 DUP1 CALLDATASIZE SUB DUP2 ADD SWAP1 PUSH2 0xC2 SWAP2 SWAP1 PUSH2 0x1518 JUMP JUMPDEST PUSH2 0x212 JUMP JUMPDEST PUSH1 0x40 MLOAD PUSH2 0xD7 SWAP5 SWAP4 SWAP3 SWAP2 SWAP1 PUSH2 0x16F0 JUMP JUMPDEST PUSH1 0x40 MLOAD DUP1 SWAP2 SUB SWAP1 RETURN JUMPDEST PUSH2 0xFA PUSH1 0x4 DUP1 CALLDATASIZE SUB DUP2 ADD SWAP1 PUSH2 0xF5 SWAP2 SWAP1 PUSH2 0x1878 JUMP JUMPDEST PUSH2 0x436 JUMP JUMPDEST STOP JUMPDEST PUSH2 0x116 PUSH1 0x4 DUP1 CALLDATASIZE SUB DUP2 ADD SWAP1 PUSH2 0x111 SWAP2 SWAP1 PUSH2 0x1878 JUMP JUMPDEST PUSH2 0x51D JUMP JUMPDEST STOP JUMPDEST PUSH2 0x132 PUSH1 0x4 DUP1 CALLDATASIZE SUB DUP2 ADD SWAP1 PUSH2 0x12D SWAP2 SWAP1 PUSH2 0x18D4 JUMP JUMPDEST PUSH2 0x6A1 JUMP JUMPDEST STOP JUMPDEST PUSH2 0x14E PUSH1 0x4 DUP1 CALLDATASIZE SUB DUP2 ADD SWAP1 PUSH2 0x149 SWAP2 SWAP1 PUSH2 0x1A59 JUMP JUMPDEST PUSH2 0x6F8 JUMP JUMPDEST STOP JUMPDEST PUSH2 0x16A PUSH1 0x4 DUP1 CALLDATASIZE SUB DUP2 ADD SWAP1 PUSH2 0x165 SWAP2 SWAP1 PUSH2 0x1B44 JUMP JUMPDEST PUSH2 0x8D1 JUMP JUMPDEST STOP JUMPDEST PUSH2 0x186 PUSH1 0x4 DUP1 CALLDATASIZE SUB DUP2 ADD SWAP1 PUSH2 0x181 SWAP2 SWAP1 PUSH2 0x1878 JUMP JUMPDEST PUSH2 0xA4E JUMP JUMPDEST STOP JUMPDEST PUSH2 0x1A2 PUSH1 0x4 DUP1 CALLDATASIZE SUB DUP2 ADD SWAP1 PUSH2 0x19D SWAP2 SWAP1 PUSH2 0x1878 JUMP JUMPDEST PUSH2 0xB2B JUMP JUMPDEST STOP JUMPDEST PUSH2 0x1BE PUSH1 0x4 DUP1 CALLDATASIZE SUB DUP2 ADD SWAP1 PUSH2 0x1B9 SWAP2 SWAP1 PUSH2 0x1C72 JUMP JUMPDEST PUSH2 0xBE3 JUMP JUMPDEST STOP JUMPDEST PUSH2 0x1DA PUSH1 0x4 DUP1 CALLDATASIZE SUB DUP2 ADD SWAP1 PUSH2 0x1D5 SWAP2 SWAP1 PUSH2 0x1518 JUMP JUMPDEST PUSH2 0xDB8 JUMP JUMPDEST PUSH1 0x40 MLOAD PUSH2 0x1ED SWAP8 SWAP7 SWAP6 SWAP5 SWAP4 SWAP3 SWAP2 SWAP1 PUSH2 0x1DA0 JUMP JUMPDEST PUSH1 0x40 MLOAD DUP1 SWAP2 SUB SWAP1 RETURN JUMPDEST PUSH2 0x210 PUSH1 0x4 DUP1 CALLDATASIZE SUB DUP2 ADD SWAP1 PUSH2 0x20B SWAP2 SWAP1 PUSH2 0x1878 JUMP JUMPDEST PUSH2 0x130B JUMP JUMPDEST STOP JUMPDEST PUSH1 0x0 DUP1 PUSH1 0x60 DUP1 PUSH1 0x0 PUSH1 0x1 PUSH1 0x0 DUP8 DUP2 MSTORE PUSH1 0x20 ADD SWAP1 DUP2 MSTORE PUSH1 0x20 ADD PUSH1 0x0 KECCAK256 PUSH1 0x0 ADD SLOAD SUB PUSH2 0x271 JUMPI PUSH1 0x40 MLOAD PUSH32 0x8C379A000000000000000000000000000000000000000000000000000000000 DUP2 MSTORE PUSH1 0x4 ADD PUSH2 0x268 SWAP1 PUSH2 0x1E85 JUMP JUMPDEST PUSH1 0x40 MLOAD DUP1 SWAP2 SUB SWAP1 REVERT JUMPDEST PUSH1 0x0 PUSH1 0x1 PUSH1 0x0 DUP8 DUP2 MSTORE PUSH1 0x20 ADD SWAP1 DUP2 MSTORE PUSH1 0x20 ADD PUSH1 0x0 KECCAK256 PUSH1 0x40 MLOAD DUP1 PUSH1 0x80 ADD PUSH1 0x40 MSTORE SWAP1 DUP2 PUSH1 0x0 DUP3 ADD SLOAD DUP2 MSTORE PUSH1 0x20 ADD PUSH1 0x1 DUP3 ADD SLOAD DUP2 MSTORE PUSH1 0x20 ADD PUSH1 0x2 DUP3 ADD DUP1 SLOAD DUP1 PUSH1 0x20 MUL PUSH1 0x20 ADD PUSH1 0x40 MLOAD SWAP1 DUP2 ADD PUSH1 0x40 MSTORE DUP1 SWAP3 SWAP2 SWAP1 DUP2 DUP2 MSTORE PUSH1 0x20 ADD PUSH1 0x0 SWAP1 JUMPDEST DUP3 DUP3 LT ISZERO PUSH2 0x376 JUMPI DUP4 DUP3 SWAP1 PUSH1 0x0 MSTORE PUSH1 0x20 PUSH1 0x0 KECCAK256 ADD DUP1 SLOAD PUSH2 0x2E9 SWAP1 PUSH2 0x1ED4 JUMP JUMPDEST DUP1 PUSH1 0x1F ADD PUSH1 0x20 DUP1 SWAP2 DIV MUL PUSH1 0x20 ADD PUSH1 0x40 MLOAD SWAP1 DUP2 ADD PUSH1 0x40 MSTORE DUP1 SWAP3 SWAP2 SWAP1 DUP2 DUP2 MSTORE PUSH1 0x20 ADD DUP3 DUP1 SLOAD PUSH2 0x315 SWAP1 PUSH2 0x1ED4 JUMP JUMPDEST DUP1 ISZERO PUSH2 0x362 JUMPI DUP1 PUSH1 0x1F LT PUSH2 0x337 JUMPI PUSH2 0x100 DUP1 DUP4 SLOAD DIV MUL DUP4 MSTORE SWAP2 PUSH1 0x20 ADD SWAP2 PUSH2 0x362 JUMP JUMPDEST DUP3 ADD SWAP2 SWAP1 PUSH1 0x0 MSTORE PUSH1 0x20 PUSH1 0x0 KECCAK256 SWAP1 JUMPDEST DUP2 SLOAD DUP2 MSTORE SWAP1 PUSH1 0x1 ADD SWAP1 PUSH1 0x20 ADD DUP1 DUP4 GT PUSH2 0x345 JUMPI DUP3 SWAP1 SUB PUSH1 0x1F AND DUP3 ADD SWAP2 JUMPDEST POP POP POP POP POP DUP2 MSTORE PUSH1 0x20 ADD SWAP1 PUSH1 0x1 ADD SWAP1 PUSH2 0x2CA JUMP JUMPDEST POP POP POP POP DUP2 MSTORE PUSH1 0x20 ADD PUSH1 0x3 DUP3 ADD DUP1 SLOAD PUSH2 0x38E SWAP1 PUSH2 0x1ED4 JUMP JUMPDEST DUP1 PUSH1 0x1F ADD PUSH1 0x20 DUP1 SWAP2 DIV MUL PUSH1 0x20 ADD PUSH1 0x40 MLOAD SWAP1 DUP2 ADD PUSH1 0x40 MSTORE DUP1 SWAP3 SWAP2 SWAP1 DUP2 DUP2 MSTORE PUSH1 0x20 ADD DUP3 DUP1 SLOAD PUSH2 0x3BA SWAP1 PUSH2 0x1ED4 JUMP JUMPDEST DUP1 ISZERO PUSH2 0x407 JUMPI DUP1 PUSH1 0x1F LT PUSH2 0x3DC JUMPI PUSH2 0x100 DUP1 DUP4 SLOAD DIV MUL DUP4 MSTORE SWAP2 PUSH1 0x20 ADD SWAP2 PUSH2 0x407 JUMP JUMPDEST DUP3 ADD SWAP2 SWAP1 PUSH1 0x0 MSTORE PUSH1 0x20 PUSH1 0x0 KECCAK256 SWAP1 JUMPDEST DUP2 SLOAD DUP2 MSTORE SWAP1 PUSH1 0x1 ADD SWAP1 PUSH1 0x20 ADD DUP1 DUP4 GT PUSH2 0x3EA JUMPI DUP3 SWAP1 SUB PUSH1 0x1F AND DUP3 ADD SWAP2 JUMPDEST POP POP POP POP POP DUP2 MSTORE POP POP SWAP1 POP DUP1 PUSH1 0x0 ADD MLOAD DUP2 PUSH1 0x20 ADD MLOAD DUP3 PUSH1 0x40 ADD MLOAD DUP4 PUSH1 0x60 ADD MLOAD SWAP5 POP SWAP5 POP SWAP5 POP SWAP5 POP POP SWAP2 SWAP4 POP SWAP2 SWAP4 JUMP JUMPDEST PUSH1 0x0 DUP1 PUSH1 0x0 DUP5 DUP2 MSTORE PUSH1 0x20 ADD SWAP1 DUP2 MSTORE PUSH1 0x20 ADD PUSH1 0x0 KECCAK256 PUSH1 0x0 ADD SLOAD SUB PUSH2 0x48E JUMPI PUSH1 0x40 MLOAD PUSH32 0x8C379A000000000000000000000000000000000000000000000000000000000 DUP2 MSTORE PUSH1 0x4 ADD PUSH2 0x485 SWAP1 PUSH2 0x1F51 JUMP JUMPDEST PUSH1 0x40 MLOAD DUP1 SWAP2 SUB SWAP1 REVERT JUMPDEST PUSH1 0x0 DUP2 MLOAD EQ PUSH2 0x519 JUMPI PUSH1 0x0 DUP1 DUP4 DUP2 MSTORE PUSH1 0x20 ADD SWAP1 DUP2 MSTORE PUSH1 0x20 ADD PUSH1 0x0 KECCAK256 PUSH1 0x6 ADD DUP2 SWAP1 DUP1 PUSH1 0x1 DUP2 SLOAD ADD DUP1 DUP3 SSTORE DUP1 SWAP2 POP POP PUSH1 0x1 SWAP1 SUB SWAP1 PUSH1 0x0 MSTORE PUSH1 0x20 PUSH1 0x0 KECCAK256 ADD PUSH1 0x0 SWAP1 SWAP2 SWAP1 SWAP2 SWAP1 SWAP2 POP SWAP1 DUP2 PUSH2 0x4DE SWAP2 SWAP1 PUSH2 0x211D JUMP JUMPDEST POP PUSH32 0x87661EA3B8C60E0C894323756E7A6621BBA6FEBB0D52180BD9495551006B8DB8 DUP3 DUP3 PUSH1 0x40 MLOAD PUSH2 0x510 SWAP3 SWAP2 SWAP1 PUSH2 0x21EF JUMP JUMPDEST PUSH1 0x40 MLOAD DUP1 SWAP2 SUB SWAP1 LOG1 JUMPDEST POP POP JUMP JUMPDEST PUSH1 0x0 DUP1 PUSH1 0x0 DUP5 DUP2 MSTORE PUSH1 0x20 ADD SWAP1 DUP2 MSTORE PUSH1 0x20 ADD PUSH1 0x0 KECCAK256 PUSH1 0x0 ADD SLOAD SUB PUSH2 0x575 JUMPI PUSH1 0x40 MLOAD PUSH32 0x8C379A000000000000000000000000000000000000000000000000000000000 DUP2 MSTORE PUSH1 0x4 ADD PUSH2 0x56C SWAP1 PUSH2 0x1F51 JUMP JUMPDEST PUSH1 0x40 MLOAD DUP1 SWAP2 SUB SWAP1 REVERT JUMPDEST PUSH1 0x0 DUP1 PUSH1 0x0 DUP5 DUP2 MSTORE PUSH1 0x20 ADD SWAP1 DUP2 MSTORE PUSH1 0x20 ADD PUSH1 0x0 KECCAK256 PUSH1 0x4 ADD SWAP1 POP PUSH1 0x0 JUMPDEST DUP2 DUP1 SLOAD SWAP1 POP DUP2 LT ISZERO PUSH2 0x69B JUMPI DUP3 PUSH1 0x40 MLOAD PUSH1 0x20 ADD PUSH2 0x5AE SWAP2 SWAP1 PUSH2 0x225B JUMP JUMPDEST PUSH1 0x40 MLOAD PUSH1 0x20 DUP2 DUP4 SUB SUB DUP2 MSTORE SWAP1 PUSH1 0x40 MSTORE DUP1 MLOAD SWAP1 PUSH1 0x20 ADD KECCAK256 DUP3 DUP3 DUP2 SLOAD DUP2 LT PUSH2 0x5D7 JUMPI PUSH2 0x5D6 PUSH2 0x2272 JUMP JUMPDEST JUMPDEST SWAP1 PUSH1 0x0 MSTORE PUSH1 0x20 PUSH1 0x0 KECCAK256 ADD PUSH1 0x40 MLOAD PUSH1 0x20 ADD PUSH2 0x5F1 SWAP2 SWAP1 PUSH2 0x2324 JUMP JUMPDEST PUSH1 0x40 MLOAD PUSH1 0x20 DUP2 DUP4 SUB SUB DUP2 MSTORE SWAP1 PUSH1 0x40 MSTORE DUP1 MLOAD SWAP1 PUSH1 0x20 ADD KECCAK256 EQ PUSH2 0x68E JUMPI PUSH1 0x0 DUP1 DUP6 DUP2 MSTORE PUSH1 0x20 ADD SWAP1 DUP2 MSTORE PUSH1 0x20 ADD PUSH1 0x0 KECCAK256 PUSH1 0x4 ADD DUP4 SWAP1 DUP1 PUSH1 0x1 DUP2 SLOAD ADD DUP1 DUP3 SSTORE DUP1 SWAP2 POP POP PUSH1 0x1 SWAP1 SUB SWAP1 PUSH1 0x0 MSTORE PUSH1 0x20 PUSH1 0x0 KECCAK256 ADD PUSH1 0x0 SWAP1 SWAP2 SWAP1 SWAP2 SWAP1 SWAP2 POP SWAP1 DUP2 PUSH2 0x653 SWAP2 SWAP1 PUSH2 0x211D JUMP JUMPDEST POP PUSH32 0x43EBB29C5825DC21DD53CE082C92FE1694FC7F706BEF05F794DB38FD50E91C42 DUP5 DUP5 PUSH1 0x40 MLOAD PUSH2 0x685 SWAP3 SWAP2 SWAP1 PUSH2 0x21EF JUMP JUMPDEST PUSH1 0x40 MLOAD DUP1 SWAP2 SUB SWAP1 LOG1 JUMPDEST DUP1 DUP1 PUSH1 0x1 ADD SWAP2 POP POP PUSH2 0x591 JUMP JUMPDEST POP POP POP POP JUMP JUMPDEST PUSH2 0x6AB DUP5 DUP4 PUSH2 0x436 JUMP JUMPDEST PUSH2 0x6B5 DUP4 DUP3 PUSH2 0x130B JUMP JUMPDEST PUSH32 0x4BE0710F8054D6BCC8F7B169DC04DB82622F2860DE2F1450E5DD095E974A4A2 DUP5 DUP5 DUP5 DUP5 PUSH1 0x40 MLOAD PUSH2 0x6EA SWAP5 SWAP4 SWAP3 SWAP2 SWAP1 PUSH2 0x233B JUMP JUMPDEST PUSH1 0x40 MLOAD DUP1 SWAP2 SUB SWAP1 LOG1 POP POP POP POP JUMP JUMPDEST PUSH1 0x0 PUSH1 0x40 MLOAD DUP1 PUSH1 0xE0 ADD PUSH1 0x40 MSTORE DUP1 DUP8 DUP2 MSTORE PUSH1 0x20 ADD DUP7 DUP2 MSTORE PUSH1 0x20 ADD PUSH1 0x0 PUSH8 0xFFFFFFFFFFFFFFFF DUP2 GT ISZERO PUSH2 0x72C JUMPI PUSH2 0x72B PUSH2 0x174D JUMP JUMPDEST JUMPDEST PUSH1 0x40 MLOAD SWAP1 DUP1 DUP3 MSTORE DUP1 PUSH1 0x20 MUL PUSH1 0x20 ADD DUP3 ADD PUSH1 0x40 MSTORE DUP1 ISZERO PUSH2 0x75F JUMPI DUP2 PUSH1 0x20 ADD JUMPDEST PUSH1 0x60 DUP2 MSTORE PUSH1 0x20 ADD SWAP1 PUSH1 0x1 SWAP1 SUB SWAP1 DUP2 PUSH2 0x74A JUMPI SWAP1 POP JUMPDEST POP DUP2 MSTORE PUSH1 0x20 ADD PUSH1 0x0 PUSH8 0xFFFFFFFFFFFFFFFF DUP2 GT ISZERO PUSH2 0x780 JUMPI PUSH2 0x77F PUSH2 0x174D JUMP JUMPDEST JUMPDEST PUSH1 0x40 MLOAD SWAP1 DUP1 DUP3 MSTORE DUP1 PUSH1 0x1F ADD PUSH1 0x1F NOT AND PUSH1 0x20 ADD DUP3 ADD PUSH1 0x40 MSTORE DUP1 ISZERO PUSH2 0x7B2 JUMPI DUP2 PUSH1 0x20 ADD PUSH1 0x1 DUP3 MUL DUP1 CALLDATASIZE DUP4 CALLDATACOPY DUP1 DUP3 ADD SWAP2 POP POP SWAP1 POP JUMPDEST POP DUP2 MSTORE PUSH1 0x20 ADD DUP6 DUP2 MSTORE PUSH1 0x20 ADD DUP4 DUP2 MSTORE PUSH1 0x20 ADD DUP5 DUP2 MSTORE POP SWAP1 POP DUP1 PUSH1 0x0 DUP1 DUP9 DUP2 MSTORE PUSH1 0x20 ADD SWAP1 DUP2 MSTORE PUSH1 0x20 ADD PUSH1 0x0 KECCAK256 PUSH1 0x0 DUP3 ADD MLOAD DUP2 PUSH1 0x0 ADD SSTORE PUSH1 0x20 DUP3 ADD MLOAD DUP2 PUSH1 0x1 ADD SWAP1 DUP1 MLOAD SWAP1 PUSH1 0x20 ADD SWAP1 PUSH2 0x803 SWAP3 SWAP2 SWAP1 PUSH2 0x13F4 JUMP JUMPDEST POP PUSH1 0x40 DUP3 ADD MLOAD DUP2 PUSH1 0x2 ADD SWAP1 DUP1 MLOAD SWAP1 PUSH1 0x20 ADD SWAP1 PUSH2 0x820 SWAP3 SWAP2 SWAP1 PUSH2 0x13F4 JUMP JUMPDEST POP PUSH1 0x60 DUP3 ADD MLOAD DUP2 PUSH1 0x3 ADD SWAP1 DUP2 PUSH2 0x836 SWAP2 SWAP1 PUSH2 0x211D JUMP JUMPDEST POP PUSH1 0x80 DUP3 ADD MLOAD DUP2 PUSH1 0x4 ADD SWAP1 DUP1 MLOAD SWAP1 PUSH1 0x20 ADD SWAP1 PUSH2 0x853 SWAP3 SWAP2 SWAP1 PUSH2 0x13F4 JUMP JUMPDEST POP PUSH1 0xA0 DUP3 ADD MLOAD DUP2 PUSH1 0x5 ADD SWAP1 DUP2 PUSH2 0x869 SWAP2 SWAP1 PUSH2 0x211D JUMP JUMPDEST POP PUSH1 0xC0 DUP3 ADD MLOAD DUP2 PUSH1 0x6 ADD SWAP1 DUP1 MLOAD SWAP1 PUSH1 0x20 ADD SWAP1 PUSH2 0x886 SWAP3 SWAP2 SWAP1 PUSH2 0x13F4 JUMP JUMPDEST POP SWAP1 POP POP PUSH32 0x8B0EBEF86DA41D30D01AB6FC1B0C15ABC551924FABA94463B120D0A5496AC088 DUP7 DUP7 DUP7 DUP7 DUP7 PUSH1 0x40 MLOAD PUSH2 0x8C1 SWAP6 SWAP5 SWAP4 SWAP3 SWAP2 SWAP1 PUSH2 0x238E JUMP JUMPDEST PUSH1 0x40 MLOAD DUP1 SWAP2 SUB SWAP1 LOG1 POP POP POP POP POP POP JUMP JUMPDEST PUSH1 0x0 PUSH1 0x40 MLOAD DUP1 PUSH1 0x80 ADD PUSH1 0x40 MSTORE DUP1 DUP9 DUP2 MSTORE PUSH1 0x20 ADD DUP10 DUP2 MSTORE PUSH1 0x20 ADD DUP8 DUP2 MSTORE PUSH1 0x20 ADD DUP7 DUP2 MSTORE POP SWAP1 POP DUP1 PUSH1 0x1 PUSH1 0x0 DUP10 DUP2 MSTORE PUSH1 0x20 ADD SWAP1 DUP2 MSTORE PUSH1 0x20 ADD PUSH1 0x0 KECCAK256 PUSH1 0x0 DUP3 ADD MLOAD DUP2 PUSH1 0x0 ADD SSTORE PUSH1 0x20 DUP3 ADD MLOAD DUP2 PUSH1 0x1 ADD SSTORE PUSH1 0x40 DUP3 ADD MLOAD DUP2 PUSH1 0x2 ADD SWAP1 DUP1 MLOAD SWAP1 PUSH1 0x20 ADD SWAP1 PUSH2 0x93A SWAP3 SWAP2 SWAP1 PUSH2 0x13F4 JUMP JUMPDEST POP PUSH1 0x60 DUP3 ADD MLOAD DUP2 PUSH1 0x3 ADD SWAP1 DUP2 PUSH2 0x950 SWAP2 SWAP1 PUSH2 0x211D JUMP JUMPDEST POP SWAP1 POP POP PUSH32 0x2B46C5A9ABB122374AEF1276FFD741F67EEFF4F946E37797E0351F87D97C56EF DUP9 DUP9 DUP9 DUP9 PUSH1 0x40 MLOAD PUSH2 0x989 SWAP5 SWAP4 SWAP3 SWAP2 SWAP1 PUSH2 0x16F0 JUMP JUMPDEST PUSH1 0x40 MLOAD DUP1 SWAP2 SUB SWAP1 LOG1 PUSH1 0x0 DUP1 PUSH1 0x0 DUP11 DUP2 MSTORE PUSH1 0x20 ADD SWAP1 DUP2 MSTORE PUSH1 0x20 ADD PUSH1 0x0 KECCAK256 PUSH1 0x0 ADD SLOAD SUB PUSH2 0x9E9 JUMPI PUSH1 0x40 MLOAD PUSH32 0x8C379A000000000000000000000000000000000000000000000000000000000 DUP2 MSTORE PUSH1 0x4 ADD PUSH2 0x9E0 SWAP1 PUSH2 0x1F51 JUMP JUMPDEST PUSH1 0x40 MLOAD DUP1 SWAP2 SUB SWAP1 REVERT JUMPDEST PUSH2 0x9F3 DUP9 DUP5 PUSH2 0x436 JUMP JUMPDEST PUSH2 0x9FD DUP9 DUP4 PUSH2 0x51D JUMP JUMPDEST PUSH2 0xA07 DUP9 DUP6 PUSH2 0xB2B JUMP JUMPDEST PUSH32 0x45E79BE367DB1C377FB15CA9EDAB8004706304374EA19E4B45B01E55A2058410 DUP9 DUP5 DUP7 DUP6 PUSH1 0x40 MLOAD PUSH2 0xA3C SWAP5 SWAP4 SWAP3 SWAP2 SWAP1 PUSH2 0x23FD JUMP JUMPDEST PUSH1 0x40 MLOAD DUP1 SWAP2 SUB SWAP1 LOG1 POP POP POP POP POP POP POP POP JUMP JUMPDEST PUSH1 0x0 DUP1 PUSH1 0x0 DUP5 DUP2 MSTORE PUSH1 0x20 ADD SWAP1 DUP2 MSTORE PUSH1 0x20 ADD PUSH1 0x0 KECCAK256 PUSH1 0x0 ADD SLOAD SUB PUSH2 0xAA6 JUMPI PUSH1 0x40 MLOAD PUSH32 0x8C379A000000000000000000000000000000000000000000000000000000000 DUP2 MSTORE PUSH1 0x4 ADD PUSH2 0xA9D SWAP1 PUSH2 0x1F51 JUMP JUMPDEST PUSH1 0x40 MLOAD DUP1 SWAP2 SUB SWAP1 REVERT JUMPDEST PUSH1 0x0 DUP1 DUP4 DUP2 MSTORE PUSH1 0x20 ADD SWAP1 DUP2 MSTORE PUSH1 0x20 ADD PUSH1 0x0 KECCAK256 PUSH1 0x2 ADD DUP2 SWAP1 DUP1 PUSH1 0x1 DUP2 SLOAD ADD DUP1 DUP3 SSTORE DUP1 SWAP2 POP POP PUSH1 0x1 SWAP1 SUB SWAP1 PUSH1 0x0 MSTORE PUSH1 0x20 PUSH1 0x0 KECCAK256 ADD PUSH1 0x0 SWAP1 SWAP2 SWAP1 SWAP2 SWAP1 SWAP2 POP SWAP1 DUP2 PUSH2 0xAED SWAP2 SWAP1 PUSH2 0x211D JUMP JUMPDEST POP PUSH32 0xF5B4DEF5973D014960EAD91323C90AE13E6DD9FC1B7EED2DE3A4DCCF2422ECBE DUP3 DUP3 PUSH1 0x40 MLOAD PUSH2 0xB1F SWAP3 SWAP2 SWAP1 PUSH2 0x21EF JUMP JUMPDEST PUSH1 0x40 MLOAD DUP1 SWAP2 SUB SWAP1 LOG1 POP POP JUMP JUMPDEST PUSH1 0x0 DUP1 PUSH1 0x0 DUP5 DUP2 MSTORE PUSH1 0x20 ADD SWAP1 DUP2 MSTORE PUSH1 0x20 ADD PUSH1 0x0 KECCAK256 PUSH1 0x0 ADD SLOAD SUB PUSH2 0xB83 JUMPI PUSH1 0x40 MLOAD PUSH32 0x8C379A000000000000000000000000000000000000000000000000000000000 DUP2 MSTORE PUSH1 0x4 ADD PUSH2 0xB7A SWAP1 PUSH2 0x1F51 JUMP JUMPDEST PUSH1 0x40 MLOAD DUP1 SWAP2 SUB SWAP1 REVERT JUMPDEST DUP1 PUSH1 0x0 DUP1 DUP5 DUP2 MSTORE PUSH1 0x20 ADD SWAP1 DUP2 MSTORE PUSH1 0x20 ADD PUSH1 0x0 KECCAK256 PUSH1 0x3 ADD SWAP1 DUP2 PUSH2 0xBA5 SWAP2 SWAP1 PUSH2 0x211D JUMP JUMPDEST POP PUSH32 0x486601F39A7566D6437506CE18DD3F9016302318A1A72515BDB8835A7C1FEF5D DUP3 DUP3 PUSH1 0x40 MLOAD PUSH2 0xBD7 SWAP3 SWAP2 SWAP1 PUSH2 0x21EF JUMP JUMPDEST PUSH1 0x40 MLOAD DUP1 SWAP2 SUB SWAP1 LOG1 POP POP JUMP JUMPDEST PUSH1 0x0 PUSH1 0x40 MLOAD DUP1 PUSH1 0x80 ADD PUSH1 0x40 MSTORE DUP1 DUP9 DUP2 MSTORE PUSH1 0x20 ADD DUP10 DUP2 MSTORE PUSH1 0x20 ADD DUP8 DUP2 MSTORE PUSH1 0x20 ADD DUP7 DUP2 MSTORE POP SWAP1 POP DUP1 PUSH1 0x1 PUSH1 0x0 DUP10 DUP2 MSTORE PUSH1 0x20 ADD SWAP1 DUP2 MSTORE PUSH1 0x20 ADD PUSH1 0x0 KECCAK256 PUSH1 0x0 DUP3 ADD MLOAD DUP2 PUSH1 0x0 ADD SSTORE PUSH1 0x20 DUP3 ADD MLOAD DUP2 PUSH1 0x1 ADD SSTORE PUSH1 0x40 DUP3 ADD MLOAD DUP2 PUSH1 0x2 ADD SWAP1 DUP1 MLOAD SWAP1 PUSH1 0x20 ADD SWAP1 PUSH2 0xC4C SWAP3 SWAP2 SWAP1 PUSH2 0x13F4 JUMP JUMPDEST POP PUSH1 0x60 DUP3 ADD MLOAD DUP2 PUSH1 0x3 ADD SWAP1 DUP2 PUSH2 0xC62 SWAP2 SWAP1 PUSH2 0x211D JUMP JUMPDEST POP SWAP1 POP POP PUSH32 0x2B46C5A9ABB122374AEF1276FFD741F67EEFF4F946E37797E0351F87D97C56EF DUP9 DUP9 DUP9 DUP9 PUSH1 0x40 MLOAD PUSH2 0xC9B SWAP5 SWAP4 SWAP3 SWAP2 SWAP1 PUSH2 0x16F0 JUMP JUMPDEST PUSH1 0x40 MLOAD DUP1 SWAP2 SUB SWAP1 LOG1 PUSH1 0x0 DUP1 PUSH1 0x0 DUP11 DUP2 MSTORE PUSH1 0x20 ADD SWAP1 DUP2 MSTORE PUSH1 0x20 ADD PUSH1 0x0 KECCAK256 PUSH1 0x0 ADD SLOAD SUB PUSH2 0xCFB JUMPI PUSH1 0x40 MLOAD PUSH32 0x8C379A000000000000000000000000000000000000000000000000000000000 DUP2 MSTORE PUSH1 0x4 ADD PUSH2 0xCF2 SWAP1 PUSH2 0x1F51 JUMP JUMPDEST PUSH1 0x40 MLOAD DUP1 SWAP2 SUB SWAP1 REVERT JUMPDEST PUSH2 0xD05 DUP9 DUP5 PUSH2 0x51D JUMP JUMPDEST PUSH2 0xD0F DUP9 DUP4 PUSH2 0x436 JUMP JUMPDEST PUSH1 0x0 JUMPDEST DUP5 MLOAD DUP2 LT ISZERO PUSH2 0xD70 JUMPI PUSH1 0x0 DUP6 DUP3 DUP2 MLOAD DUP2 LT PUSH2 0xD30 JUMPI PUSH2 0xD2F PUSH2 0x2272 JUMP JUMPDEST JUMPDEST PUSH1 0x20 MUL PUSH1 0x20 ADD ADD MLOAD MLOAD EQ PUSH2 0xD63 JUMPI PUSH2 0xD62 DUP10 DUP7 DUP4 DUP2 MLOAD DUP2 LT PUSH2 0xD55 JUMPI PUSH2 0xD54 PUSH2 0x2272 JUMP JUMPDEST JUMPDEST PUSH1 0x20 MUL PUSH1 0x20 ADD ADD MLOAD PUSH2 0xA4E JUMP JUMPDEST JUMPDEST DUP1 DUP1 PUSH1 0x1 ADD SWAP2 POP POP PUSH2 0xD12 JUMP JUMPDEST POP PUSH32 0x7D6476FE1FC582A694507F0924CA15DEDEF3F7807FB680D3A0328F9E79ECEF3 DUP9 DUP5 DUP5 DUP8 PUSH1 0x40 MLOAD PUSH2 0xDA6 SWAP5 SWAP4 SWAP3 SWAP2 SWAP1 PUSH2 0x2457 JUMP JUMPDEST PUSH1 0x40 MLOAD DUP1 SWAP2 SUB SWAP1 LOG1 POP POP POP POP POP POP POP POP JUMP JUMPDEST PUSH1 0x0 PUSH1 0x60 DUP1 PUSH1 0x60 DUP1 PUSH1 0x60 DUP1 PUSH1 0x0 DUP1 PUSH1 0x0 DUP11 DUP2 MSTORE PUSH1 0x20 ADD SWAP1 DUP2 MSTORE PUSH1 0x20 ADD PUSH1 0x0 KECCAK256 PUSH1 0x0 ADD SLOAD SUB PUSH2 0xE1B JUMPI PUSH1 0x40 MLOAD PUSH32 0x8C379A000000000000000000000000000000000000000000000000000000000 DUP2 MSTORE PUSH1 0x4 ADD PUSH2 0xE12 SWAP1 PUSH2 0x1F51 JUMP JUMPDEST PUSH1 0x40 MLOAD DUP1 SWAP2 SUB SWAP1 REVERT JUMPDEST PUSH1 0x0 DUP1 PUSH1 0x0 DUP11 DUP2 MSTORE PUSH1 0x20 ADD SWAP1 DUP2 MSTORE PUSH1 0x20 ADD PUSH1 0x0 KECCAK256 PUSH1 0x40 MLOAD DUP1 PUSH1 0xE0 ADD PUSH1 0x40 MSTORE SWAP1 DUP2 PUSH1 0x0 DUP3 ADD SLOAD DUP2 MSTORE PUSH1 0x20 ADD PUSH1 0x1 DUP3 ADD DUP1 SLOAD DUP1 PUSH1 0x20 MUL PUSH1 0x20 ADD PUSH1 0x40 MLOAD SWAP1 DUP2 ADD PUSH1 0x40 MSTORE DUP1 SWAP3 SWAP2 SWAP1 DUP2 DUP2 MSTORE PUSH1 0x20 ADD PUSH1 0x0 SWAP1 JUMPDEST DUP3 DUP3 LT ISZERO PUSH2 0xF15 JUMPI DUP4 DUP3 SWAP1 PUSH1 0x0 MSTORE PUSH1 0x20 PUSH1 0x0 KECCAK256 ADD DUP1 SLOAD PUSH2 0xE88 SWAP1 PUSH2 0x1ED4 JUMP JUMPDEST DUP1 PUSH1 0x1F ADD PUSH1 0x20 DUP1 SWAP2 DIV MUL PUSH1 0x20 ADD PUSH1 0x40 MLOAD SWAP1 DUP2 ADD PUSH1 0x40 MSTORE DUP1 SWAP3 SWAP2 SWAP1 DUP2 DUP2 MSTORE PUSH1 0x20 ADD DUP3 DUP1 SLOAD PUSH2 0xEB4 SWAP1 PUSH2 0x1ED4 JUMP JUMPDEST DUP1 ISZERO PUSH2 0xF01 JUMPI DUP1 PUSH1 0x1F LT PUSH2 0xED6 JUMPI PUSH2 0x100 DUP1 DUP4 SLOAD DIV MUL DUP4 MSTORE SWAP2 PUSH1 0x20 ADD SWAP2 PUSH2 0xF01 JUMP JUMPDEST DUP3 ADD SWAP2 SWAP1 PUSH1 0x0 MSTORE PUSH1 0x20 PUSH1 0x0 KECCAK256 SWAP1 JUMPDEST DUP2 SLOAD DUP2 MSTORE SWAP1 PUSH1 0x1 ADD SWAP1 PUSH1 0x20 ADD DUP1 DUP4 GT PUSH2 0xEE4 JUMPI DUP3 SWAP1 SUB PUSH1 0x1F AND DUP3 ADD SWAP2 JUMPDEST POP POP POP POP POP DUP2 MSTORE PUSH1 0x20 ADD SWAP1 PUSH1 0x1 ADD SWAP1 PUSH2 0xE69 JUMP JUMPDEST POP POP POP POP DUP2 MSTORE PUSH1 0x20 ADD PUSH1 0x2 DUP3 ADD DUP1 SLOAD DUP1 PUSH1 0x20 MUL PUSH1 0x20 ADD PUSH1 0x40 MLOAD SWAP1 DUP2 ADD PUSH1 0x40 MSTORE DUP1 SWAP3 SWAP2 SWAP1 DUP2 DUP2 MSTORE PUSH1 0x20 ADD PUSH1 0x0 SWAP1 JUMPDEST DUP3 DUP3 LT ISZERO PUSH2 0xFEE JUMPI DUP4 DUP3 SWAP1 PUSH1 0x0 MSTORE PUSH1 0x20 PUSH1 0x0 KECCAK256 ADD DUP1 SLOAD PUSH2 0xF61 SWAP1 PUSH2 0x1ED4 JUMP JUMPDEST DUP1 PUSH1 0x1F ADD PUSH1 0x20 DUP1 SWAP2 DIV MUL PUSH1 0x20 ADD PUSH1 0x40 MLOAD SWAP1 DUP2 ADD PUSH1 0x40 MSTORE DUP1 SWAP3 SWAP2 SWAP1 DUP2 DUP2 MSTORE PUSH1 0x20 ADD DUP3 DUP1 SLOAD PUSH2 0xF8D SWAP1 PUSH2 0x1ED4 JUMP JUMPDEST DUP1 ISZERO PUSH2 0xFDA JUMPI DUP1 PUSH1 0x1F LT PUSH2 0xFAF JUMPI PUSH2 0x100 DUP1 DUP4 SLOAD DIV MUL DUP4 MSTORE SWAP2 PUSH1 0x20 ADD SWAP2 PUSH2 0xFDA JUMP JUMPDEST DUP3 ADD SWAP2 SWAP1 PUSH1 0x0 MSTORE PUSH1 0x20 PUSH1 0x0 KECCAK256 SWAP1 JUMPDEST DUP2 SLOAD DUP2 MSTORE SWAP1 PUSH1 0x1 ADD SWAP1 PUSH1 0x20 ADD DUP1 DUP4 GT PUSH2 0xFBD JUMPI DUP3 SWAP1 SUB PUSH1 0x1F AND DUP3 ADD SWAP2 JUMPDEST POP POP POP POP POP DUP2 MSTORE PUSH1 0x20 ADD SWAP1 PUSH1 0x1 ADD SWAP1 PUSH2 0xF42 JUMP JUMPDEST POP POP POP POP DUP2 MSTORE PUSH1 0x20 ADD PUSH1 0x3 DUP3 ADD DUP1 SLOAD PUSH2 0x1006 SWAP1 PUSH2 0x1ED4 JUMP JUMPDEST DUP1 PUSH1 0x1F ADD PUSH1 0x20 DUP1 SWAP2 DIV MUL PUSH1 0x20 ADD PUSH1 0x40 MLOAD SWAP1 DUP2 ADD PUSH1 0x40 MSTORE DUP1 SWAP3 SWAP2 SWAP1 DUP2 DUP2 MSTORE PUSH1 0x20 ADD DUP3 DUP1 SLOAD PUSH2 0x1032 SWAP1 PUSH2 0x1ED4 JUMP JUMPDEST DUP1 ISZERO PUSH2 0x107F JUMPI DUP1 PUSH1 0x1F LT PUSH2 0x1054 JUMPI PUSH2 0x100 DUP1 DUP4 SLOAD DIV MUL DUP4 MSTORE SWAP2 PUSH1 0x20 ADD SWAP2 PUSH2 0x107F JUMP JUMPDEST DUP3 ADD SWAP2 SWAP1 PUSH1 0x0 MSTORE PUSH1 0x20 PUSH1 0x0 KECCAK256 SWAP1 JUMPDEST DUP2 SLOAD DUP2 MSTORE SWAP1 PUSH1 0x1 ADD SWAP1 PUSH1 0x20 ADD DUP1 DUP4 GT PUSH2 0x1062 JUMPI DUP3 SWAP1 SUB PUSH1 0x1F AND DUP3 ADD SWAP2 JUMPDEST POP POP POP POP POP DUP2 MSTORE PUSH1 0x20 ADD PUSH1 0x4 DUP3 ADD DUP1 SLOAD DUP1 PUSH1 0x20 MUL PUSH1 0x20 ADD PUSH1 0x40 MLOAD SWAP1 DUP2 ADD PUSH1 0x40 MSTORE DUP1 SWAP3 SWAP2 SWAP1 DUP2 DUP2 MSTORE PUSH1 0x20 ADD PUSH1 0x0 SWAP1 JUMPDEST DUP3 DUP3 LT ISZERO PUSH2 0x1159 JUMPI DUP4 DUP3 SWAP1 PUSH1 0x0 MSTORE PUSH1 0x20 PUSH1 0x0 KECCAK256 ADD DUP1 SLOAD PUSH2 0x10CC SWAP1 PUSH2 0x1ED4 JUMP JUMPDEST DUP1 PUSH1 0x1F ADD PUSH1 0x20 DUP1 SWAP2 DIV MUL PUSH1 0x20 ADD PUSH1 0x40 MLOAD SWAP1 DUP2 ADD PUSH1 0x40 MSTORE DUP1 SWAP3 SWAP2 SWAP1 DUP2 DUP2 MSTORE PUSH1 0x20 ADD DUP3 DUP1 SLOAD PUSH2 0x10F8 SWAP1 PUSH2 0x1ED4 JUMP JUMPDEST DUP1 ISZERO PUSH2 0x1145 JUMPI DUP1 PUSH1 0x1F LT PUSH2 0x111A JUMPI PUSH2 0x100 DUP1 DUP4 SLOAD DIV MUL DUP4 MSTORE SWAP2 PUSH1 0x20 ADD SWAP2 PUSH2 0x1145 JUMP JUMPDEST DUP3 ADD SWAP2 SWAP1 PUSH1 0x0 MSTORE PUSH1 0x20 PUSH1 0x0 KECCAK256 SWAP1 JUMPDEST DUP2 SLOAD DUP2 MSTORE SWAP1 PUSH1 0x1 ADD SWAP1 PUSH1 0x20 ADD DUP1 DUP4 GT PUSH2 0x1128 JUMPI DUP3 SWAP1 SUB PUSH1 0x1F AND DUP3 ADD SWAP2 JUMPDEST POP POP POP POP POP DUP2 MSTORE PUSH1 0x20 ADD SWAP1 PUSH1 0x1 ADD SWAP1 PUSH2 0x10AD JUMP JUMPDEST POP POP POP POP DUP2 MSTORE PUSH1 0x20 ADD PUSH1 0x5 DUP3 ADD DUP1 SLOAD PUSH2 0x1171 SWAP1 PUSH2 0x1ED4 JUMP JUMPDEST DUP1 PUSH1 0x1F ADD PUSH1 0x20 DUP1 SWAP2 DIV MUL PUSH1 0x20 ADD PUSH1 0x40 MLOAD SWAP1 DUP2 ADD PUSH1 0x40 MSTORE DUP1 SWAP3 SWAP2 SWAP1 DUP2 DUP2 MSTORE PUSH1 0x20 ADD DUP3 DUP1 SLOAD PUSH2 0x119D SWAP1 PUSH2 0x1ED4 JUMP JUMPDEST DUP1 ISZERO PUSH2 0x11EA JUMPI DUP1 PUSH1 0x1F LT PUSH2 0x11BF JUMPI PUSH2 0x100 DUP1 DUP4 SLOAD DIV MUL DUP4 MSTORE SWAP2 PUSH1 0x20 ADD SWAP2 PUSH2 0x11EA JUMP JUMPDEST DUP3 ADD SWAP2 SWAP1 PUSH1 0x0 MSTORE PUSH1 0x20 PUSH1 0x0 KECCAK256 SWAP1 JUMPDEST DUP2 SLOAD DUP2 MSTORE SWAP1 PUSH1 0x1 ADD SWAP1 PUSH1 0x20 ADD DUP1 DUP4 GT PUSH2 0x11CD JUMPI DUP3 SWAP1 SUB PUSH1 0x1F AND DUP3 ADD SWAP2 JUMPDEST POP POP POP POP POP DUP2 MSTORE PUSH1 0x20 ADD PUSH1 0x6 DUP3 ADD DUP1 SLOAD DUP1 PUSH1 0x20 MUL PUSH1 0x20 ADD PUSH1 0x40 MLOAD SWAP1 DUP2 ADD PUSH1 0x40 MSTORE DUP1 SWAP3 SWAP2 SWAP1 DUP2 DUP2 MSTORE PUSH1 0x20 ADD PUSH1 0x0 SWAP1 JUMPDEST DUP3 DUP3 LT ISZERO PUSH2 0x12C4 JUMPI DUP4 DUP3 SWAP1 PUSH1 0x0 MSTORE PUSH1 0x20 PUSH1 0x0 KECCAK256 ADD DUP1 SLOAD PUSH2 0x1237 SWAP1 PUSH2 0x1ED4 JUMP JUMPDEST DUP1 PUSH1 0x1F ADD PUSH1 0x20 DUP1 SWAP2 DIV MUL PUSH1 0x20 ADD PUSH1 0x40 MLOAD SWAP1 DUP2 ADD PUSH1 0x40 MSTORE DUP1 SWAP3 SWAP2 SWAP1 DUP2 DUP2 MSTORE PUSH1 0x20 ADD DUP3 DUP1 SLOAD PUSH2 0x1263 SWAP1 PUSH2 0x1ED4 JUMP JUMPDEST DUP1 ISZERO PUSH2 0x12B0 JUMPI DUP1 PUSH1 0x1F LT PUSH2 0x1285 JUMPI PUSH2 0x100 DUP1 DUP4 SLOAD DIV MUL DUP4 MSTORE SWAP2 PUSH1 0x20 ADD SWAP2 PUSH2 0x12B0 JUMP JUMPDEST DUP3 ADD SWAP2 SWAP1 PUSH1 0x0 MSTORE PUSH1 0x20 PUSH1 0x0 KECCAK256 SWAP1 JUMPDEST DUP2 SLOAD DUP2 MSTORE SWAP1 PUSH1 0x1 ADD SWAP1 PUSH1 0x20 ADD DUP1 DUP4 GT PUSH2 0x1293 JUMPI DUP3 SWAP1 SUB PUSH1 0x1F AND DUP3 ADD SWAP2 JUMPDEST POP POP POP POP POP DUP2 MSTORE PUSH1 0x20 ADD SWAP1 PUSH1 0x1 ADD SWAP1 PUSH2 0x1218 JUMP JUMPDEST POP POP POP POP DUP2 MSTORE POP POP SWAP1 POP DUP1 PUSH1 0x0 ADD MLOAD DUP2 PUSH1 0x20 ADD MLOAD DUP3 PUSH1 0x80 ADD MLOAD DUP4 PUSH1 0x40 ADD MLOAD DUP5 PUSH1 0xC0 ADD MLOAD DUP6 PUSH1 0x60 ADD MLOAD DUP7 PUSH1 0xA0 ADD MLOAD SWAP8 POP SWAP8 POP SWAP8 POP SWAP8 POP SWAP8 POP SWAP8 POP SWAP8 POP POP SWAP2 SWAP4 SWAP6 SWAP8 SWAP1 SWAP3 SWAP5 SWAP7 POP JUMP JUMPDEST PUSH1 0x0 PUSH1 0x1 PUSH1 0x0 DUP5 DUP2 MSTORE PUSH1 0x20 ADD SWAP1 DUP2 MSTORE PUSH1 0x20 ADD PUSH1 0x0 KECCAK256 PUSH1 0x1 ADD SLOAD SUB PUSH2 0x1364 JUMPI PUSH1 0x40 MLOAD PUSH32 0x8C379A000000000000000000000000000000000000000000000000000000000 DUP2 MSTORE PUSH1 0x4 ADD PUSH2 0x135B SWAP1 PUSH2 0x1E85 JUMP JUMPDEST PUSH1 0x40 MLOAD DUP1 SWAP2 SUB SWAP1 REVERT JUMPDEST PUSH1 0x0 DUP2 MLOAD EQ PUSH2 0x13F0 JUMPI PUSH1 0x1 PUSH1 0x0 DUP4 DUP2 MSTORE PUSH1 0x20 ADD SWAP1 DUP2 MSTORE PUSH1 0x20 ADD PUSH1 0x0 KECCAK256 PUSH1 0x2 ADD DUP2 SWAP1 DUP1 PUSH1 0x1 DUP2 SLOAD ADD DUP1 DUP3 SSTORE DUP1 SWAP2 POP POP PUSH1 0x1 SWAP1 SUB SWAP1 PUSH1 0x0 MSTORE PUSH1 0x20 PUSH1 0x0 KECCAK256 ADD PUSH1 0x0 SWAP1 SWAP2 SWAP1 SWAP2 SWAP1 SWAP2 POP SWAP1 DUP2 PUSH2 0x13B5 SWAP2 SWAP1 PUSH2 0x211D JUMP JUMPDEST POP PUSH32 0x11913CDE77209FAD0B0CE2121C4EE0A95F4BB323DAECC763C5C783DBF03D79BC DUP3 DUP3 PUSH1 0x40 MLOAD PUSH2 0x13E7 SWAP3 SWAP2 SWAP1 PUSH2 0x21EF JUMP JUMPDEST PUSH1 0x40 MLOAD DUP1 SWAP2 SUB SWAP1 LOG1 JUMPDEST POP POP JUMP JUMPDEST DUP3 DUP1 SLOAD DUP3 DUP3 SSTORE SWAP1 PUSH1 0x0 MSTORE PUSH1 0x20 PUSH1 0x0 KECCAK256 SWAP1 DUP2 ADD SWAP3 DUP3 ISZERO PUSH2 0x143C JUMPI SWAP2 PUSH1 0x20 MUL DUP3 ADD JUMPDEST DUP3 DUP2 GT ISZERO PUSH2 0x143B JUMPI DUP3 MLOAD DUP3 SWAP1 DUP2 PUSH2 0x142B SWAP2 SWAP1 PUSH2 0x211D JUMP JUMPDEST POP SWAP2 PUSH1 0x20 ADD SWAP2 SWAP1 PUSH1 0x1 ADD SWAP1 PUSH2 0x1414 JUMP JUMPDEST JUMPDEST POP SWAP1 POP PUSH2 0x1449 SWAP2 SWAP1 PUSH2 0x144D JUMP JUMPDEST POP SWAP1 JUMP JUMPDEST JUMPDEST DUP1 DUP3 GT ISZERO PUSH2 0x146D JUMPI PUSH1 0x0 DUP2 DUP2 PUSH2 0x1464 SWAP2 SWAP1 PUSH2 0x1471 JUMP JUMPDEST POP PUSH1 0x1 ADD PUSH2 0x144E JUMP JUMPDEST POP SWAP1 JUMP JUMPDEST POP DUP1 SLOAD PUSH2 0x147D SWAP1 PUSH2 0x1ED4 JUMP JUMPDEST PUSH1 0x0 DUP3 SSTORE DUP1 PUSH1 0x1F LT PUSH2 0x148F JUMPI POP PUSH2 0x14AE JUMP JUMPDEST PUSH1 0x1F ADD PUSH1 0x20 SWAP1 DIV SWAP1 PUSH1 0x0 MSTORE PUSH1 0x20 PUSH1 0x0 KECCAK256 SWAP1 DUP2 ADD SWAP1 PUSH2 0x14AD SWAP2 SWAP1 PUSH2 0x14B1 JUMP JUMPDEST JUMPDEST POP JUMP JUMPDEST JUMPDEST DUP1 DUP3 GT ISZERO PUSH2 0x14CA JUMPI PUSH1 0x0 DUP2 PUSH1 0x0 SWAP1 SSTORE POP PUSH1 0x1 ADD PUSH2 0x14B2 JUMP JUMPDEST POP SWAP1 JUMP JUMPDEST PUSH1 0x0 PUSH1 0x40 MLOAD SWAP1 POP SWAP1 JUMP JUMPDEST PUSH1 0x0 DUP1 REVERT JUMPDEST PUSH1 0x0 DUP1 REVERT JUMPDEST PUSH1 0x0 DUP2 SWAP1 POP SWAP2 SWAP1 POP JUMP JUMPDEST PUSH2 0x14F5 DUP2 PUSH2 0x14E2 JUMP JUMPDEST DUP2 EQ PUSH2 0x1500 JUMPI PUSH1 0x0 DUP1 REVERT JUMPDEST POP JUMP JUMPDEST PUSH1 0x0 DUP2 CALLDATALOAD SWAP1 POP PUSH2 0x1512 DUP2 PUSH2 0x14EC JUMP JUMPDEST SWAP3 SWAP2 POP POP JUMP JUMPDEST PUSH1 0x0 PUSH1 0x20 DUP3 DUP5 SUB SLT ISZERO PUSH2 0x152E JUMPI PUSH2 0x152D PUSH2 0x14D8 JUMP JUMPDEST JUMPDEST PUSH1 0x0 PUSH2 0x153C DUP5 DUP3 DUP6 ADD PUSH2 0x1503 JUMP JUMPDEST SWAP2 POP POP SWAP3 SWAP2 POP POP JUMP JUMPDEST PUSH2 0x154E DUP2 PUSH2 0x14E2 JUMP JUMPDEST DUP3 MSTORE POP POP JUMP JUMPDEST PUSH1 0x0 DUP2 MLOAD SWAP1 POP SWAP2 SWAP1 POP JUMP JUMPDEST PUSH1 0x0 DUP3 DUP3 MSTORE PUSH1 0x20 DUP3 ADD SWAP1 POP SWAP3 SWAP2 POP POP JUMP JUMPDEST PUSH1 0x0 DUP2 SWAP1 POP PUSH1 0x20 DUP3 ADD SWAP1 POP SWAP2 SWAP1 POP JUMP JUMPDEST PUSH1 0x0 DUP2 MLOAD SWAP1 POP SWAP2 SWAP1 POP JUMP JUMPDEST PUSH1 0x0 DUP3 DUP3 MSTORE PUSH1 0x20 DUP3 ADD SWAP1 POP SWAP3 SWAP2 POP POP JUMP JUMPDEST PUSH1 0x0 JUMPDEST DUP4 DUP2 LT ISZERO PUSH2 0x15BA JUMPI DUP1 DUP3 ADD MLOAD DUP2 DUP5 ADD MSTORE PUSH1 0x20 DUP2 ADD SWAP1 POP PUSH2 0x159F JUMP JUMPDEST PUSH1 0x0 DUP5 DUP5 ADD MSTORE POP POP POP POP JUMP JUMPDEST PUSH1 0x0 PUSH1 0x1F NOT PUSH1 0x1F DUP4 ADD AND SWAP1 POP SWAP2 SWAP1 POP JUMP JUMPDEST PUSH1 0x0 PUSH2 0x15E2 DUP3 PUSH2 0x1580 JUMP JUMPDEST PUSH2 0x15EC DUP2 DUP6 PUSH2 0x158B JUMP JUMPDEST SWAP4 POP PUSH2 0x15FC DUP2 DUP6 PUSH1 0x20 DUP7 ADD PUSH2 0x159C JUMP JUMPDEST PUSH2 0x1605 DUP2 PUSH2 0x15C6 JUMP JUMPDEST DUP5 ADD SWAP2 POP POP SWAP3 SWAP2 POP POP JUMP JUMPDEST PUSH1 0x0 PUSH2 0x161C DUP4 DUP4 PUSH2 0x15D7 JUMP JUMPDEST SWAP1 POP SWAP3 SWAP2 POP POP JUMP JUMPDEST PUSH1 0x0 PUSH1 0x20 DUP3 ADD SWAP1 POP SWAP2 SWAP1 POP JUMP JUMPDEST PUSH1 0x0 PUSH2 0x163C DUP3 PUSH2 0x1554 JUMP JUMPDEST PUSH2 0x1646 DUP2 DUP6 PUSH2 0x155F JUMP JUMPDEST SWAP4 POP DUP4 PUSH1 0x20 DUP3 MUL DUP6 ADD PUSH2 0x1658 DUP6 PUSH2 0x1570 JUMP JUMPDEST DUP1 PUSH1 0x0 JUMPDEST DUP6 DUP2 LT ISZERO PUSH2 0x1694 JUMPI DUP5 DUP5 SUB DUP10 MSTORE DUP2 MLOAD PUSH2 0x1675 DUP6 DUP3 PUSH2 0x1610 JUMP JUMPDEST SWAP5 POP PUSH2 0x1680 DUP4 PUSH2 0x1624 JUMP JUMPDEST SWAP3 POP PUSH1 0x20 DUP11 ADD SWAP10 POP POP PUSH1 0x1 DUP2 ADD SWAP1 POP PUSH2 0x165C JUMP JUMPDEST POP DUP3 SWAP8 POP DUP8 SWAP6 POP POP POP POP POP POP SWAP3 SWAP2 POP POP JUMP JUMPDEST PUSH1 0x0 DUP3 DUP3 MSTORE PUSH1 0x20 DUP3 ADD SWAP1 POP SWAP3 SWAP2 POP POP JUMP JUMPDEST PUSH1 0x0 PUSH2 0x16C2 DUP3 PUSH2 0x1580 JUMP JUMPDEST PUSH2 0x16CC DUP2 DUP6 PUSH2 0x16A6 JUMP JUMPDEST SWAP4 POP PUSH2 0x16DC DUP2 DUP6 PUSH1 0x20 DUP7 ADD PUSH2 0x159C JUMP JUMPDEST PUSH2 0x16E5 DUP2 PUSH2 0x15C6 JUMP JUMPDEST DUP5 ADD SWAP2 POP POP SWAP3 SWAP2 POP POP JUMP JUMPDEST PUSH1 0x0 PUSH1 0x80 DUP3 ADD SWAP1 POP PUSH2 0x1705 PUSH1 0x0 DUP4 ADD DUP8 PUSH2 0x1545 JUMP JUMPDEST PUSH2 0x1712 PUSH1 0x20 DUP4 ADD DUP7 PUSH2 0x1545 JUMP JUMPDEST DUP2 DUP2 SUB PUSH1 0x40 DUP4 ADD MSTORE PUSH2 0x1724 DUP2 DUP6 PUSH2 0x1631 JUMP JUMPDEST SWAP1 POP DUP2 DUP2 SUB PUSH1 0x60 DUP4 ADD MSTORE PUSH2 0x1738 DUP2 DUP5 PUSH2 0x16B7 JUMP JUMPDEST SWAP1 POP SWAP6 SWAP5 POP POP POP POP POP JUMP JUMPDEST PUSH1 0x0 DUP1 REVERT JUMPDEST PUSH1 0x0 DUP1 REVERT JUMPDEST PUSH32 0x4E487B7100000000000000000000000000000000000000000000000000000000 PUSH1 0x0 MSTORE PUSH1 0x41 PUSH1 0x4 MSTORE PUSH1 0x24 PUSH1 0x0 REVERT JUMPDEST PUSH2 0x1785 DUP3 PUSH2 0x15C6 JUMP JUMPDEST DUP2 ADD DUP2 DUP2 LT PUSH8 0xFFFFFFFFFFFFFFFF DUP3 GT OR ISZERO PUSH2 0x17A4 JUMPI PUSH2 0x17A3 PUSH2 0x174D JUMP JUMPDEST JUMPDEST DUP1 PUSH1 0x40 MSTORE POP POP POP JUMP JUMPDEST PUSH1 0x0 PUSH2 0x17B7 PUSH2 0x14CE JUMP JUMPDEST SWAP1 POP PUSH2 0x17C3 DUP3 DUP3 PUSH2 0x177C JUMP JUMPDEST SWAP2 SWAP1 POP JUMP JUMPDEST PUSH1 0x0 PUSH8 0xFFFFFFFFFFFFFFFF DUP3 GT ISZERO PUSH2 0x17E3 JUMPI PUSH2 0x17E2 PUSH2 0x174D JUMP JUMPDEST JUMPDEST PUSH2 0x17EC DUP3 PUSH2 0x15C6 JUMP JUMPDEST SWAP1 POP PUSH1 0x20 DUP2 ADD SWAP1 POP SWAP2 SWAP1 POP JUMP JUMPDEST DUP3 DUP2 DUP4 CALLDATACOPY PUSH1 0x0 DUP4 DUP4 ADD MSTORE POP POP POP JUMP JUMPDEST PUSH1 0x0 PUSH2 0x181B PUSH2 0x1816 DUP5 PUSH2 0x17C8 JUMP JUMPDEST PUSH2 0x17AD JUMP JUMPDEST SWAP1 POP DUP3 DUP2 MSTORE PUSH1 0x20 DUP2 ADD DUP5 DUP5 DUP5 ADD GT ISZERO PUSH2 0x1837 JUMPI PUSH2 0x1836 PUSH2 0x1748 JUMP JUMPDEST JUMPDEST PUSH2 0x1842 DUP5 DUP3 DUP6 PUSH2 0x17F9 JUMP JUMPDEST POP SWAP4 SWAP3 POP POP POP JUMP JUMPDEST PUSH1 0x0 DUP3 PUSH1 0x1F DUP4 ADD SLT PUSH2 0x185F JUMPI PUSH2 0x185E PUSH2 0x1743 JUMP JUMPDEST JUMPDEST DUP2 CALLDATALOAD PUSH2 0x186F DUP5 DUP3 PUSH1 0x20 DUP7 ADD PUSH2 0x1808 JUMP JUMPDEST SWAP2 POP POP SWAP3 SWAP2 POP POP JUMP JUMPDEST PUSH1 0x0 DUP1 PUSH1 0x40 DUP4 DUP6 SUB SLT ISZERO PUSH2 0x188F JUMPI PUSH2 0x188E PUSH2 0x14D8 JUMP JUMPDEST JUMPDEST PUSH1 0x0 PUSH2 0x189D DUP6 DUP3 DUP7 ADD PUSH2 0x1503 JUMP JUMPDEST SWAP3 POP POP PUSH1 0x20 DUP4 ADD CALLDATALOAD PUSH8 0xFFFFFFFFFFFFFFFF DUP2 GT ISZERO PUSH2 0x18BE JUMPI PUSH2 0x18BD PUSH2 0x14DD JUMP JUMPDEST JUMPDEST PUSH2 0x18CA DUP6 DUP3 DUP7 ADD PUSH2 0x184A JUMP JUMPDEST SWAP2 POP POP SWAP3 POP SWAP3 SWAP1 POP JUMP JUMPDEST PUSH1 0x0 DUP1 PUSH1 0x0 DUP1 PUSH1 0x80 DUP6 DUP8 SUB SLT ISZERO PUSH2 0x18EE JUMPI PUSH2 0x18ED PUSH2 0x14D8 JUMP JUMPDEST JUMPDEST PUSH1 0x0 PUSH2 0x18FC DUP8 DUP3 DUP9 ADD PUSH2 0x1503 JUMP JUMPDEST SWAP5 POP POP PUSH1 0x20 PUSH2 0x190D DUP8 DUP3 DUP9 ADD PUSH2 0x1503 JUMP JUMPDEST SWAP4 POP POP PUSH1 0x40 DUP6 ADD CALLDATALOAD PUSH8 0xFFFFFFFFFFFFFFFF DUP2 GT ISZERO PUSH2 0x192E JUMPI PUSH2 0x192D PUSH2 0x14DD JUMP JUMPDEST JUMPDEST PUSH2 0x193A DUP8 DUP3 DUP9 ADD PUSH2 0x184A JUMP JUMPDEST SWAP3 POP POP PUSH1 0x60 DUP6 ADD CALLDATALOAD PUSH8 0xFFFFFFFFFFFFFFFF DUP2 GT ISZERO PUSH2 0x195B JUMPI PUSH2 0x195A PUSH2 0x14DD JUMP JUMPDEST JUMPDEST PUSH2 0x1967 DUP8 DUP3 DUP9 ADD PUSH2 0x184A JUMP JUMPDEST SWAP2 POP POP SWAP3 SWAP6 SWAP2 SWAP5 POP SWAP3 POP JUMP JUMPDEST PUSH1 0x0 PUSH8 0xFFFFFFFFFFFFFFFF DUP3 GT ISZERO PUSH2 0x198E JUMPI PUSH2 0x198D PUSH2 0x174D JUMP JUMPDEST JUMPDEST PUSH1 0x20 DUP3 MUL SWAP1 POP PUSH1 0x20 DUP2 ADD SWAP1 POP SWAP2 SWAP1 POP JUMP JUMPDEST PUSH1 0x0 DUP1 REVERT JUMPDEST PUSH1 0x0 PUSH2 0x19B7 PUSH2 0x19B2 DUP5 PUSH2 0x1973 JUMP JUMPDEST PUSH2 0x17AD JUMP JUMPDEST SWAP1 POP DUP1 DUP4 DUP3 MSTORE PUSH1 0x20 DUP3 ADD SWAP1 POP PUSH1 0x20 DUP5 MUL DUP4 ADD DUP6 DUP2 GT ISZERO PUSH2 0x19DA JUMPI PUSH2 0x19D9 PUSH2 0x199F JUMP JUMPDEST JUMPDEST DUP4 JUMPDEST DUP2 DUP2 LT ISZERO PUSH2 0x1A21 JUMPI DUP1 CALLDATALOAD PUSH8 0xFFFFFFFFFFFFFFFF DUP2 GT ISZERO PUSH2 0x19FF JUMPI PUSH2 0x19FE PUSH2 0x1743 JUMP JUMPDEST JUMPDEST DUP1 DUP7 ADD PUSH2 0x1A0C DUP10 DUP3 PUSH2 0x184A JUMP JUMPDEST DUP6 MSTORE PUSH1 0x20 DUP6 ADD SWAP5 POP POP POP PUSH1 0x20 DUP2 ADD SWAP1 POP PUSH2 0x19DC JUMP JUMPDEST POP POP POP SWAP4 SWAP3 POP POP POP JUMP JUMPDEST PUSH1 0x0 DUP3 PUSH1 0x1F DUP4 ADD SLT PUSH2 0x1A40 JUMPI PUSH2 0x1A3F PUSH2 0x1743 JUMP JUMPDEST JUMPDEST DUP2 CALLDATALOAD PUSH2 0x1A50 DUP5 DUP3 PUSH1 0x20 DUP7 ADD PUSH2 0x19A4 JUMP JUMPDEST SWAP2 POP POP SWAP3 SWAP2 POP POP JUMP JUMPDEST PUSH1 0x0 DUP1 PUSH1 0x0 DUP1 PUSH1 0x0 PUSH1 0xA0 DUP7 DUP9 SUB SLT ISZERO PUSH2 0x1A75 JUMPI PUSH2 0x1A74 PUSH2 0x14D8 JUMP JUMPDEST JUMPDEST PUSH1 0x0 PUSH2 0x1A83 DUP9 DUP3 DUP10 ADD PUSH2 0x1503 JUMP JUMPDEST SWAP6 POP POP PUSH1 0x20 DUP7 ADD CALLDATALOAD PUSH8 0xFFFFFFFFFFFFFFFF DUP2 GT ISZERO PUSH2 0x1AA4 JUMPI PUSH2 0x1AA3 PUSH2 0x14DD JUMP JUMPDEST JUMPDEST PUSH2 0x1AB0 DUP9 DUP3 DUP10 ADD PUSH2 0x1A2B JUMP JUMPDEST SWAP5 POP POP PUSH1 0x40 DUP7 ADD CALLDATALOAD PUSH8 0xFFFFFFFFFFFFFFFF DUP2 GT ISZERO PUSH2 0x1AD1 JUMPI PUSH2 0x1AD0 PUSH2 0x14DD JUMP JUMPDEST JUMPDEST PUSH2 0x1ADD DUP9 DUP3 DUP10 ADD PUSH2 0x1A2B JUMP JUMPDEST SWAP4 POP POP PUSH1 0x60 DUP7 ADD CALLDATALOAD PUSH8 0xFFFFFFFFFFFFFFFF DUP2 GT ISZERO PUSH2 0x1AFE JUMPI PUSH2 0x1AFD PUSH2 0x14DD JUMP JUMPDEST JUMPDEST PUSH2 0x1B0A DUP9 DUP3 DUP10 ADD PUSH2 0x1A2B JUMP JUMPDEST SWAP3 POP POP PUSH1 0x80 DUP7 ADD CALLDATALOAD PUSH8 0xFFFFFFFFFFFFFFFF DUP2 GT ISZERO PUSH2 0x1B2B JUMPI PUSH2 0x1B2A PUSH2 0x14DD JUMP JUMPDEST JUMPDEST PUSH2 0x1B37 DUP9 DUP3 DUP10 ADD PUSH2 0x184A JUMP JUMPDEST SWAP2 POP POP SWAP3 SWAP6 POP SWAP3 SWAP6 SWAP1 SWAP4 POP JUMP JUMPDEST PUSH1 0x0 DUP1 PUSH1 0x0 DUP1 PUSH1 0x0 DUP1 PUSH1 0x0 PUSH1 0xE0 DUP9 DUP11 SUB SLT ISZERO PUSH2 0x1B63 JUMPI PUSH2 0x1B62 PUSH2 0x14D8 JUMP JUMPDEST JUMPDEST PUSH1 0x0 PUSH2 0x1B71 DUP11 DUP3 DUP12 ADD PUSH2 0x1503 JUMP JUMPDEST SWAP8 POP POP PUSH1 0x20 PUSH2 0x1B82 DUP11 DUP3 DUP12 ADD PUSH2 0x1503 JUMP JUMPDEST SWAP7 POP POP PUSH1 0x40 DUP9 ADD CALLDATALOAD PUSH8 0xFFFFFFFFFFFFFFFF DUP2 GT ISZERO PUSH2 0x1BA3 JUMPI PUSH2 0x1BA2 PUSH2 0x14DD JUMP JUMPDEST JUMPDEST PUSH2 0x1BAF DUP11 DUP3 DUP12 ADD PUSH2 0x1A2B JUMP JUMPDEST SWAP6 POP POP PUSH1 0x60 DUP9 ADD CALLDATALOAD PUSH8 0xFFFFFFFFFFFFFFFF DUP2 GT ISZERO PUSH2 0x1BD0 JUMPI PUSH2 0x1BCF PUSH2 0x14DD JUMP JUMPDEST JUMPDEST PUSH2 0x1BDC DUP11 DUP3 DUP12 ADD PUSH2 0x184A JUMP JUMPDEST SWAP5 POP POP PUSH1 0x80 DUP9 ADD CALLDATALOAD PUSH8 0xFFFFFFFFFFFFFFFF DUP2 GT ISZERO PUSH2 0x1BFD JUMPI PUSH2 0x1BFC PUSH2 0x14DD JUMP JUMPDEST JUMPDEST PUSH2 0x1C09 DUP11 DUP3 DUP12 ADD PUSH2 0x184A JUMP JUMPDEST SWAP4 POP POP PUSH1 0xA0 DUP9 ADD CALLDATALOAD PUSH8 0xFFFFFFFFFFFFFFFF DUP2 GT ISZERO PUSH2 0x1C2A JUMPI PUSH2 0x1C29 PUSH2 0x14DD JUMP JUMPDEST JUMPDEST PUSH2 0x1C36 DUP11 DUP3 DUP12 ADD PUSH2 0x184A JUMP JUMPDEST SWAP3 POP POP PUSH1 0xC0 DUP9 ADD CALLDATALOAD PUSH8 0xFFFFFFFFFFFFFFFF DUP2 GT ISZERO PUSH2 0x1C57 JUMPI PUSH2 0x1C56 PUSH2 0x14DD JUMP JUMPDEST JUMPDEST PUSH2 0x1C63 DUP11 DUP3 DUP12 ADD PUSH2 0x184A JUMP JUMPDEST SWAP2 POP POP SWAP3 SWAP6 SWAP9 SWAP2 SWAP5 SWAP8 POP SWAP3 SWAP6 POP JUMP JUMPDEST PUSH1 0x0 DUP1 PUSH1 0x0 DUP1 PUSH1 0x0 DUP1 PUSH1 0x0 PUSH1 0xE0 DUP9 DUP11 SUB SLT ISZERO PUSH2 0x1C91 JUMPI PUSH2 0x1C90 PUSH2 0x14D8 JUMP JUMPDEST JUMPDEST PUSH1 0x0 PUSH2 0x1C9F DUP11 DUP3 DUP12 ADD PUSH2 0x1503 JUMP JUMPDEST SWAP8 POP POP PUSH1 0x20 PUSH2 0x1CB0 DUP11 DUP3 DUP12 ADD PUSH2 0x1503 JUMP JUMPDEST SWAP7 POP POP PUSH1 0x40 DUP9 ADD CALLDATALOAD PUSH8 0xFFFFFFFFFFFFFFFF DUP2 GT ISZERO PUSH2 0x1CD1 JUMPI PUSH2 0x1CD0 PUSH2 0x14DD JUMP JUMPDEST JUMPDEST PUSH2 0x1CDD DUP11 DUP3 DUP12 ADD PUSH2 0x1A2B JUMP JUMPDEST SWAP6 POP POP PUSH1 0x60 DUP9 ADD CALLDATALOAD PUSH8 0xFFFFFFFFFFFFFFFF DUP2 GT ISZERO PUSH2 0x1CFE JUMPI PUSH2 0x1CFD PUSH2 0x14DD JUMP JUMPDEST JUMPDEST PUSH2 0x1D0A DUP11 DUP3 DUP12 ADD PUSH2 0x184A JUMP JUMPDEST SWAP5 POP POP PUSH1 0x80 DUP9 ADD CALLDATALOAD PUSH8 0xFFFFFFFFFFFFFFFF DUP2 GT ISZERO PUSH2 0x1D2B JUMPI PUSH2 0x1D2A PUSH2 0x14DD JUMP JUMPDEST JUMPDEST PUSH2 0x1D37 DUP11 DUP3 DUP12 ADD PUSH2 0x1A2B JUMP JUMPDEST SWAP4 POP POP PUSH1 0xA0 DUP9 ADD CALLDATALOAD PUSH8 0xFFFFFFFFFFFFFFFF DUP2 GT ISZERO PUSH2 0x1D58 JUMPI PUSH2 0x1D57 PUSH2 0x14DD JUMP JUMPDEST JUMPDEST PUSH2 0x1D64 DUP11 DUP3 DUP12 ADD PUSH2 0x184A JUMP JUMPDEST SWAP3 POP POP PUSH1 0xC0 DUP9 ADD CALLDATALOAD PUSH8 0xFFFFFFFFFFFFFFFF DUP2 GT ISZERO PUSH2 0x1D85 JUMPI PUSH2 0x1D84 PUSH2 0x14DD JUMP JUMPDEST JUMPDEST PUSH2 0x1D91 DUP11 DUP3 DUP12 ADD PUSH2 0x184A JUMP JUMPDEST SWAP2 POP POP SWAP3 SWAP6 SWAP9 SWAP2 SWAP5 SWAP8 POP SWAP3 SWAP6 POP JUMP JUMPDEST PUSH1 0x0 PUSH1 0xE0 DUP3 ADD SWAP1 POP PUSH2 0x1DB5 PUSH1 0x0 DUP4 ADD DUP11 PUSH2 0x1545 JUMP JUMPDEST DUP2 DUP2 SUB PUSH1 0x20 DUP4 ADD MSTORE PUSH2 0x1DC7 DUP2 DUP10 PUSH2 0x1631 JUMP JUMPDEST SWAP1 POP DUP2 DUP2 SUB PUSH1 0x40 DUP4 ADD MSTORE PUSH2 0x1DDB DUP2 DUP9 PUSH2 0x1631 JUMP JUMPDEST SWAP1 POP DUP2 DUP2 SUB PUSH1 0x60 DUP4 ADD MSTORE PUSH2 0x1DEF DUP2 DUP8 PUSH2 0x1631 JUMP JUMPDEST SWAP1 POP DUP2 DUP2 SUB PUSH1 0x80 DUP4 ADD MSTORE PUSH2 0x1E03 DUP2 DUP7 PUSH2 0x1631 JUMP JUMPDEST SWAP1 POP DUP2 DUP2 SUB PUSH1 0xA0 DUP4 ADD MSTORE PUSH2 0x1E17 DUP2 DUP6 PUSH2 0x16B7 JUMP JUMPDEST SWAP1 POP DUP2 DUP2 SUB PUSH1 0xC0 DUP4 ADD MSTORE PUSH2 0x1E2B DUP2 DUP5 PUSH2 0x16B7 JUMP JUMPDEST SWAP1 POP SWAP9 SWAP8 POP POP POP POP POP POP POP POP JUMP JUMPDEST PUSH32 0x5375624F72646572206E6F7420666F756E640000000000000000000000000000 PUSH1 0x0 DUP3 ADD MSTORE POP JUMP JUMPDEST PUSH1 0x0 PUSH2 0x1E6F PUSH1 0x12 DUP4 PUSH2 0x16A6 JUMP JUMPDEST SWAP2 POP PUSH2 0x1E7A DUP3 PUSH2 0x1E39 JUMP JUMPDEST PUSH1 0x20 DUP3 ADD SWAP1 POP SWAP2 SWAP1 POP JUMP JUMPDEST PUSH1 0x0 PUSH1 0x20 DUP3 ADD SWAP1 POP DUP2 DUP2 SUB PUSH1 0x0 DUP4 ADD MSTORE PUSH2 0x1E9E DUP2 PUSH2 0x1E62 JUMP JUMPDEST SWAP1 POP SWAP2 SWAP1 POP JUMP JUMPDEST PUSH32 0x4E487B7100000000000000000000000000000000000000000000000000000000 PUSH1 0x0 MSTORE PUSH1 0x22 PUSH1 0x4 MSTORE PUSH1 0x24 PUSH1 0x0 REVERT JUMPDEST PUSH1 0x0 PUSH1 0x2 DUP3 DIV SWAP1 POP PUSH1 0x1 DUP3 AND DUP1 PUSH2 0x1EEC JUMPI PUSH1 0x7F DUP3 AND SWAP2 POP JUMPDEST PUSH1 0x20 DUP3 LT DUP2 SUB PUSH2 0x1EFF JUMPI PUSH2 0x1EFE PUSH2 0x1EA5 JUMP JUMPDEST JUMPDEST POP SWAP2 SWAP1 POP JUMP JUMPDEST PUSH32 0x4F72646572206E6F7420666F756E640000000000000000000000000000000000 PUSH1 0x0 DUP3 ADD MSTORE POP JUMP JUMPDEST PUSH1 0x0 PUSH2 0x1F3B PUSH1 0xF DUP4 PUSH2 0x16A6 JUMP JUMPDEST SWAP2 POP PUSH2 0x1F46 DUP3 PUSH2 0x1F05 JUMP JUMPDEST PUSH1 0x20 DUP3 ADD SWAP1 POP SWAP2 SWAP1 POP JUMP JUMPDEST PUSH1 0x0 PUSH1 0x20 DUP3 ADD SWAP1 POP DUP2 DUP2 SUB PUSH1 0x0 DUP4 ADD MSTORE PUSH2 0x1F6A DUP2 PUSH2 0x1F2E JUMP JUMPDEST SWAP1 POP SWAP2 SWAP1 POP JUMP JUMPDEST PUSH1 0x0 DUP2 SWAP1 POP DUP2 PUSH1 0x0 MSTORE PUSH1 0x20 PUSH1 0x0 KECCAK256 SWAP1 POP SWAP2 SWAP1 POP JUMP JUMPDEST PUSH1 0x0 PUSH1 0x20 PUSH1 0x1F DUP4 ADD DIV SWAP1 POP SWAP2 SWAP1 POP JUMP JUMPDEST PUSH1 0x0 DUP3 DUP3 SHL SWAP1 POP SWAP3 SWAP2 POP POP JUMP JUMPDEST PUSH1 0x0 PUSH1 0x8 DUP4 MUL PUSH2 0x1FD3 PUSH32 0xFFFFFFFFFFFFFFFFFFFFFFFFFFFFFFFFFFFFFFFFFFFFFFFFFFFFFFFFFFFFFFFF DUP3 PUSH2 0x1F96 JUMP JUMPDEST PUSH2 0x1FDD DUP7 DUP4 PUSH2 0x1F96 JUMP JUMPDEST SWAP6 POP DUP1 NOT DUP5 AND SWAP4 POP DUP1 DUP7 AND DUP5 OR SWAP3 POP POP POP SWAP4 SWAP3 POP POP POP JUMP JUMPDEST PUSH1 0x0 DUP2 SWAP1 POP SWAP2 SWAP1 POP JUMP JUMPDEST PUSH1 0x0 PUSH2 0x201A PUSH2 0x2015 PUSH2 0x2010 DUP5 PUSH2 0x14E2 JUMP JUMPDEST PUSH2 0x1FF5 JUMP JUMPDEST PUSH2 0x14E2 JUMP JUMPDEST SWAP1 POP SWAP2 SWAP1 POP JUMP JUMPDEST PUSH1 0x0 DUP2 SWAP1 POP SWAP2 SWAP1 POP JUMP JUMPDEST PUSH2 0x2034 DUP4 PUSH2 0x1FFF JUMP JUMPDEST PUSH2 0x2048 PUSH2 0x2040 DUP3 PUSH2 0x2021 JUMP JUMPDEST DUP5 DUP5 SLOAD PUSH2 0x1FA3 JUMP JUMPDEST DUP3 SSTORE POP POP POP POP JUMP JUMPDEST PUSH1 0x0 SWAP1 JUMP JUMPDEST PUSH2 0x205D PUSH2 0x2050 JUMP JUMPDEST PUSH2 0x2068 DUP2 DUP5 DUP5 PUSH2 0x202B JUMP JUMPDEST POP POP POP JUMP JUMPDEST JUMPDEST DUP2 DUP2 LT ISZERO PUSH2 0x208C JUMPI PUSH2 0x2081 PUSH1 0x0 DUP3 PUSH2 0x2055 JUMP JUMPDEST PUSH1 0x1 DUP2 ADD SWAP1 POP PUSH2 0x206E JUMP JUMPDEST POP POP JUMP JUMPDEST PUSH1 0x1F DUP3 GT ISZERO PUSH2 0x20D1 JUMPI PUSH2 0x20A2 DUP2 PUSH2 0x1F71 JUMP JUMPDEST PUSH2 0x20AB DUP5 PUSH2 0x1F86 JUMP JUMPDEST DUP2 ADD PUSH1 0x20 DUP6 LT ISZERO PUSH2 0x20BA JUMPI DUP2 SWAP1 POP JUMPDEST PUSH2 0x20CE PUSH2 0x20C6 DUP6 PUSH2 0x1F86 JUMP JUMPDEST DUP4 ADD DUP3 PUSH2 0x206D JUMP JUMPDEST POP POP JUMPDEST POP POP POP JUMP JUMPDEST PUSH1 0x0 DUP3 DUP3 SHR SWAP1 POP SWAP3 SWAP2 POP POP JUMP JUMPDEST PUSH1 0x0 PUSH2 0x20F4 PUSH1 0x0 NOT DUP5 PUSH1 0x8 MUL PUSH2 0x20D6 JUMP JUMPDEST NOT DUP1 DUP4 AND SWAP2 POP POP SWAP3 SWAP2 POP POP JUMP JUMPDEST PUSH1 0x0 PUSH2 0x210D DUP4 DUP4 PUSH2 0x20E3 JUMP JUMPDEST SWAP2 POP DUP3 PUSH1 0x2 MUL DUP3 OR SWAP1 POP SWAP3 SWAP2 POP POP JUMP JUMPDEST PUSH2 0x2126 DUP3 PUSH2 0x1580 JUMP JUMPDEST PUSH8 0xFFFFFFFFFFFFFFFF DUP2 GT ISZERO PUSH2 0x213F JUMPI PUSH2 0x213E PUSH2 0x174D JUMP JUMPDEST JUMPDEST PUSH2 0x2149 DUP3 SLOAD PUSH2 0x1ED4 JUMP JUMPDEST PUSH2 0x2154 DUP3 DUP3 DUP6 PUSH2 0x2090 JUMP JUMPDEST PUSH1 0x0 PUSH1 0x20 SWAP1 POP PUSH1 0x1F DUP4 GT PUSH1 0x1 DUP2 EQ PUSH2 0x2187 JUMPI PUSH1 0x0 DUP5 ISZERO PUSH2 0x2175 JUMPI DUP3 DUP8 ADD MLOAD SWAP1 POP JUMPDEST PUSH2 0x217F DUP6 DUP3 PUSH2 0x2101 JUMP JUMPDEST DUP7 SSTORE POP PUSH2 0x21E7 JUMP JUMPDEST PUSH1 0x1F NOT DUP5 AND PUSH2 0x2195 DUP7 PUSH2 0x1F71 JUMP JUMPDEST PUSH1 0x0 JUMPDEST DUP3 DUP2 LT ISZERO PUSH2 0x21BD JUMPI DUP5 DUP10 ADD MLOAD DUP3 SSTORE PUSH1 0x1 DUP3 ADD SWAP2 POP PUSH1 0x20 DUP6 ADD SWAP5 POP PUSH1 0x20 DUP2 ADD SWAP1 POP PUSH2 0x2198 JUMP JUMPDEST DUP7 DUP4 LT ISZERO PUSH2 0x21DA JUMPI DUP5 DUP10 ADD MLOAD PUSH2 0x21D6 PUSH1 0x1F DUP10 AND DUP3 PUSH2 0x20E3 JUMP JUMPDEST DUP4 SSTORE POP JUMPDEST PUSH1 0x1 PUSH1 0x2 DUP9 MUL ADD DUP9 SSTORE POP POP POP JUMPDEST POP POP POP POP POP POP JUMP JUMPDEST PUSH1 0x0 PUSH1 0x40 DUP3 ADD SWAP1 POP PUSH2 0x2204 PUSH1 0x0 DUP4 ADD DUP6 PUSH2 0x1545 JUMP JUMPDEST DUP2 DUP2 SUB PUSH1 0x20 DUP4 ADD MSTORE PUSH2 0x2216 DUP2 DUP5 PUSH2 0x16B7 JUMP JUMPDEST SWAP1 POP SWAP4 SWAP3 POP POP POP JUMP JUMPDEST PUSH1 0x0 DUP2 SWAP1 POP SWAP3 SWAP2 POP POP JUMP JUMPDEST PUSH1 0x0 PUSH2 0x2235 DUP3 PUSH2 0x1580 JUMP JUMPDEST PUSH2 0x223F DUP2 DUP6 PUSH2 0x221F JUMP JUMPDEST SWAP4 POP PUSH2 0x224F DUP2 DUP6 PUSH1 0x20 DUP7 ADD PUSH2 0x159C JUMP JUMPDEST DUP1 DUP5 ADD SWAP2 POP POP SWAP3 SWAP2 POP POP JUMP JUMPDEST PUSH1 0x0 PUSH2 0x2267 DUP3 DUP5 PUSH2 0x222A JUMP JUMPDEST SWAP2 POP DUP2 SWAP1 POP SWAP3 SWAP2 POP POP JUMP JUMPDEST PUSH32 0x4E487B7100000000000000000000000000000000000000000000000000000000 PUSH1 0x0 MSTORE PUSH1 0x32 PUSH1 0x4 MSTORE PUSH1 0x24 PUSH1 0x0 REVERT JUMPDEST PUSH1 0x0 DUP2 SLOAD PUSH2 0x22AE DUP2 PUSH2 0x1ED4 JUMP JUMPDEST PUSH2 0x22B8 DUP2 DUP7 PUSH2 0x221F JUMP JUMPDEST SWAP5 POP PUSH1 0x1 DUP3 AND PUSH1 0x0 DUP2 EQ PUSH2 0x22D3 JUMPI PUSH1 0x1 DUP2 EQ PUSH2 0x22E8 JUMPI PUSH2 0x231B JUMP JUMPDEST PUSH1 0xFF NOT DUP4 AND DUP7 MSTORE DUP2 ISZERO ISZERO DUP3 MUL DUP7 ADD SWAP4 POP PUSH2 0x231B JUMP JUMPDEST PUSH2 0x22F1 DUP6 PUSH2 0x1F71 JUMP JUMPDEST PUSH1 0x0 JUMPDEST DUP4 DUP2 LT ISZERO PUSH2 0x2313 JUMPI DUP2 SLOAD DUP2 DUP10 ADD MSTORE PUSH1 0x1 DUP3 ADD SWAP2 POP PUSH1 0x20 DUP2 ADD SWAP1 POP PUSH2 0x22F4 JUMP JUMPDEST DUP4 DUP9 ADD SWAP6 POP POP POP JUMPDEST POP POP POP SWAP3 SWAP2 POP POP JUMP JUMPDEST PUSH1 0x0 PUSH2 0x2330 DUP3 DUP5 PUSH2 0x22A1 JUMP JUMPDEST SWAP2 POP DUP2 SWAP1 POP SWAP3 SWAP2 POP POP JUMP JUMPDEST PUSH1 0x0 PUSH1 0x80 DUP3 ADD SWAP1 POP PUSH2 0x2350 PUSH1 0x0 DUP4 ADD DUP8 PUSH2 0x1545 JUMP JUMPDEST PUSH2 0x235D PUSH1 0x20 DUP4 ADD DUP7 PUSH2 0x1545 JUMP JUMPDEST DUP2 DUP2 SUB PUSH1 0x40 DUP4 ADD MSTORE PUSH2 0x236F DUP2 DUP6 PUSH2 0x16B7 JUMP JUMPDEST SWAP1 POP DUP2 DUP2 SUB PUSH1 0x60 DUP4 ADD MSTORE PUSH2 0x2383 DUP2 DUP5 PUSH2 0x16B7 JUMP JUMPDEST SWAP1 POP SWAP6 SWAP5 POP POP POP POP POP JUMP JUMPDEST PUSH1 0x0 PUSH1 0xA0 DUP3 ADD SWAP1 POP PUSH2 0x23A3 PUSH1 0x0 DUP4 ADD DUP9 PUSH2 0x1545 JUMP JUMPDEST DUP2 DUP2 SUB PUSH1 0x20 DUP4 ADD MSTORE PUSH2 0x23B5 DUP2 DUP8 PUSH2 0x1631 JUMP JUMPDEST SWAP1 POP DUP2 DUP2 SUB PUSH1 0x40 DUP4 ADD MSTORE PUSH2 0x23C9 DUP2 DUP7 PUSH2 0x1631 JUMP JUMPDEST SWAP1 POP DUP2 DUP2 SUB PUSH1 0x60 DUP4 ADD MSTORE PUSH2 0x23DD DUP2 DUP6 PUSH2 0x1631 JUMP JUMPDEST SWAP1 POP DUP2 DUP2 SUB PUSH1 0x80 DUP4 ADD MSTORE PUSH2 0x23F1 DUP2 DUP5 PUSH2 0x16B7 JUMP JUMPDEST SWAP1 POP SWAP7 SWAP6 POP POP POP POP POP POP JUMP JUMPDEST PUSH1 0x0 PUSH1 0x80 DUP3 ADD SWAP1 POP PUSH2 0x2412 PUSH1 0x0 DUP4 ADD DUP8 PUSH2 0x1545 JUMP JUMPDEST DUP2 DUP2 SUB PUSH1 0x20 DUP4 ADD MSTORE PUSH2 0x2424 DUP2 DUP7 PUSH2 0x16B7 JUMP JUMPDEST SWAP1 POP DUP2 DUP2 SUB PUSH1 0x40 DUP4 ADD MSTORE PUSH2 0x2438 DUP2 DUP6 PUSH2 0x16B7 JUMP JUMPDEST SWAP1 POP DUP2 DUP2 SUB PUSH1 0x60 DUP4 ADD MSTORE PUSH2 0x244C DUP2 DUP5 PUSH2 0x16B7 JUMP JUMPDEST SWAP1 POP SWAP6 SWAP5 POP POP POP POP POP JUMP JUMPDEST PUSH1 0x0 PUSH1 0x80 DUP3 ADD SWAP1 POP PUSH2 0x246C PUSH1 0x0 DUP4 ADD DUP8 PUSH2 0x1545 JUMP JUMPDEST DUP2 DUP2 SUB PUSH1 0x20 DUP4 ADD MSTORE PUSH2 0x247E DUP2 DUP7 PUSH2 0x16B7 JUMP JUMPDEST SWAP1 POP DUP2 DUP2 SUB PUSH1 0x40 DUP4 ADD MSTORE PUSH2 0x2492 DUP2 DUP6 PUSH2 0x16B7 JUMP JUMPDEST SWAP1 POP DUP2 DUP2 SUB PUSH1 0x60 DUP4 ADD MSTORE PUSH2 0x24A6 DUP2 DUP5 PUSH2 0x1631 JUMP JUMPDEST SWAP1 POP SWAP6 SWAP5 POP POP POP POP POP JUMP INVALID LOG2 PUSH5 0x6970667358 0x22 SLT KECCAK256 DUP16 KECCAK256 0x2A 0xD8 0x2F 0xAE DUP16 SWAP1 0xCC 0xE 0x26 0xE3 DUP14 SWAP7 DELEGATECALL BYTE 0xAE SELFBALANCE MCOPY 0xC6 LOG1 0xCA LOG3 0xB2 0xC8 0xE2 LT 0xE3 PUSH31 0x7DC38164736F6C634300081A00330000000000000000000000000000000000 "
		},
		"gasEstimates": {
			"creation": {
				"codeDepositCost": "1889400",
				"executionCost": "1998",
				"totalCost": "1891398"
			},
			"external": {
				"addOrderCustomer(uint256,string[],string[],string[],string)": "infinite",
				"addSubOrderCarrier(uint256,uint256,string[],string,string,string,string)": "infinite",
				"addSubOrderManufacturer(uint256,uint256,string[],string,string[],string,string)": "infinite",
				"getOrder(uint256)": "infinite",
				"getSubOrder(uint256)": "infinite",
				"pushBothToTimeLine(uint256,uint256,string,string)": "infinite",
				"pushToHistory(uint256,string)": "infinite",
				"pushToMaterial(uint256,string)": "infinite",
				"pushToShipping(uint256,string)": "infinite",
				"pushToSubTimeLine(uint256,string)": "infinite",
				"pushToTimeLine(uint256,string)": "infinite"
			}
		},
		"methodIdentifiers": {
			"addOrderCustomer(uint256,string[],string[],string[],string)": "759c283e",
			"addSubOrderCarrier(uint256,uint256,string[],string,string,string,string)": "7dfc15bf",
			"addSubOrderManufacturer(uint256,uint256,string[],string,string[],string,string)": "b0ef7554",
			"getOrder(uint256)": "d09ef241",
			"getSubOrder(uint256)": "00b4ace6",
			"pushBothToTimeLine(uint256,uint256,string,string)": "6e16290d",
			"pushToHistory(uint256,string)": "5189103e",
			"pushToMaterial(uint256,string)": "7f7d14de",
			"pushToShipping(uint256,string)": "93911620",
			"pushToSubTimeLine(uint256,string)": "f53f91a1",
			"pushToTimeLine(uint256,string)": "3cb525c7"
		}
	},
	"abi": [
		{
			"anonymous": false,
			"inputs": [
				{
					"indexed": false,
					"internalType": "uint256",
					"name": "orderId",
					"type": "uint256"
				},
				{
					"indexed": false,
					"internalType": "string",
					"name": "historyEntry",
					"type": "string"
				}
			],
			"name": "HistoryAdded",
			"type": "event"
		},
		{
			"anonymous": false,
			"inputs": [
				{
					"indexed": false,
					"internalType": "uint256",
					"name": "orderId",
					"type": "uint256"
				},
				{
					"indexed": false,
					"internalType": "string",
					"name": "materialEntry",
					"type": "string"
				}
			],
			"name": "MaterialAdded",
			"type": "event"
		},
		{
			"anonymous": false,
			"inputs": [
				{
					"indexed": false,
					"internalType": "uint256",
					"name": "orderId",
					"type": "uint256"
				},
				{
					"indexed": false,
					"internalType": "string[]",
					"name": "productList",
					"type": "string[]"
				},
				{
					"indexed": false,
					"internalType": "string[]",
					"name": "history",
					"type": "string[]"
				},
				{
					"indexed": false,
					"internalType": "string[]",
					"name": "timeLine",
					"type": "string[]"
				},
				{
					"indexed": false,
					"internalType": "string",
					"name": "po",
					"type": "string"
				}
			],
			"name": "OrderCreated",
			"type": "event"
		},
		{
			"anonymous": false,
			"inputs": [
				{
					"indexed": false,
					"internalType": "uint256",
					"name": "orderId",
					"type": "uint256"
				},
				{
					"indexed": false,
					"internalType": "string",
					"name": "purchaseOrderEntry",
					"type": "string"
				}
			],
			"name": "PurchaseOrderAdded",
			"type": "event"
		},
		{
			"anonymous": false,
			"inputs": [
				{
					"indexed": false,
					"internalType": "uint256",
					"name": "orderId",
					"type": "uint256"
				},
				{
					"indexed": false,
					"internalType": "string",
					"name": "shippingEntry",
					"type": "string"
				}
			],
			"name": "ShippingAdded",
			"type": "event"
		},
		{
			"anonymous": false,
			"inputs": [
				{
					"indexed": false,
					"internalType": "uint256",
					"name": "orderId",
					"type": "uint256"
				},
				{
					"indexed": false,
					"internalType": "string",
					"name": "timeLine",
					"type": "string"
				},
				{
					"indexed": false,
					"internalType": "string",
					"name": "shippingEntry",
					"type": "string"
				},
				{
					"indexed": false,
					"internalType": "string",
					"name": "historyEntry",
					"type": "string"
				}
			],
			"name": "SubOrderCarrierCreated",
			"type": "event"
		},
		{
			"anonymous": false,
			"inputs": [
				{
					"indexed": false,
					"internalType": "uint256",
					"name": "subOrderId",
					"type": "uint256"
				},
				{
					"indexed": false,
					"internalType": "uint256",
					"name": "orderId",
					"type": "uint256"
				},
				{
					"indexed": false,
					"internalType": "string[]",
					"name": "subTimeLine",
					"type": "string[]"
				},
				{
					"indexed": false,
					"internalType": "string",
					"name": "subpo",
					"type": "string"
				}
			],
			"name": "SubOrderCreated",
			"type": "event"
		},
		{
			"anonymous": false,
			"inputs": [
				{
					"indexed": false,
					"internalType": "uint256",
					"name": "orderId",
					"type": "uint256"
				},
				{
					"indexed": false,
					"internalType": "string",
					"name": "historyEntry",
					"type": "string"
				},
				{
					"indexed": false,
					"internalType": "string",
					"name": "timeLineEntry",
					"type": "string"
				},
				{
					"indexed": false,
					"internalType": "string[]",
					"name": "materialEntry",
					"type": "string[]"
				}
			],
			"name": "SubOrderManufacturerCreated",
			"type": "event"
		},
		{
			"anonymous": false,
			"inputs": [
				{
					"indexed": false,
					"internalType": "uint256",
					"name": "subOrderId",
					"type": "uint256"
				},
				{
					"indexed": false,
					"internalType": "string",
					"name": "subTimeLineEntry",
					"type": "string"
				}
			],
			"name": "SubTimeLineAdded",
			"type": "event"
		},
		{
			"anonymous": false,
			"inputs": [
				{
					"indexed": false,
					"internalType": "uint256",
					"name": "orderId",
					"type": "uint256"
				},
				{
					"indexed": false,
					"internalType": "string",
					"name": "timeLineEntry",
					"type": "string"
				}
			],
			"name": "TimeLineAdded",
			"type": "event"
		},
		{
			"anonymous": false,
			"inputs": [
				{
					"indexed": false,
					"internalType": "uint256",
					"name": "orderId",
					"type": "uint256"
				},
				{
					"indexed": false,
					"internalType": "uint256",
					"name": "subOrderId",
					"type": "uint256"
				},
				{
					"indexed": false,
					"internalType": "string",
					"name": "timeLineEntry",
					"type": "string"
				},
				{
					"indexed": false,
					"internalType": "string",
					"name": "subTimeLineEntry",
					"type": "string"
				}
			],
			"name": "TimeLineBothAdded",
			"type": "event"
		},
		{
			"inputs": [
				{
					"internalType": "uint256",
					"name": "_orderId",
					"type": "uint256"
				},
				{
					"internalType": "string[]",
					"name": "_productList",
					"type": "string[]"
				},
				{
					"internalType": "string[]",
					"name": "_history",
					"type": "string[]"
				},
				{
					"internalType": "string[]",
					"name": "_timeLine",
					"type": "string[]"
				},
				{
					"internalType": "string",
					"name": "_po",
					"type": "string"
				}
			],
			"name": "addOrderCustomer",
			"outputs": [],
			"stateMutability": "nonpayable",
			"type": "function"
		},
		{
			"inputs": [
				{
					"internalType": "uint256",
					"name": "_orderId",
					"type": "uint256"
				},
				{
					"internalType": "uint256",
					"name": "_subOrderId",
					"type": "uint256"
				},
				{
					"internalType": "string[]",
					"name": "_subTimeLine",
					"type": "string[]"
				},
				{
					"internalType": "string",
					"name": "_subpo",
					"type": "string"
				},
				{
					"internalType": "string",
					"name": "_shippingEntry",
					"type": "string"
				},
				{
					"internalType": "string",
					"name": "_timeLine",
					"type": "string"
				},
				{
					"internalType": "string",
					"name": "_historyEntry",
					"type": "string"
				}
			],
			"name": "addSubOrderCarrier",
			"outputs": [],
			"stateMutability": "nonpayable",
			"type": "function"
		},
		{
			"inputs": [
				{
					"internalType": "uint256",
					"name": "_orderId",
					"type": "uint256"
				},
				{
					"internalType": "uint256",
					"name": "_subOrderId",
					"type": "uint256"
				},
				{
					"internalType": "string[]",
					"name": "_subTimeLine",
					"type": "string[]"
				},
				{
					"internalType": "string",
					"name": "_subpo",
					"type": "string"
				},
				{
					"internalType": "string[]",
					"name": "_materialEntry",
					"type": "string[]"
				},
				{
					"internalType": "string",
					"name": "_historyEntry",
					"type": "string"
				},
				{
					"internalType": "string",
					"name": "_timeLine",
					"type": "string"
				}
			],
			"name": "addSubOrderManufacturer",
			"outputs": [],
			"stateMutability": "nonpayable",
			"type": "function"
		},
		{
			"inputs": [
				{
					"internalType": "uint256",
					"name": "_orderId",
					"type": "uint256"
				}
			],
			"name": "getOrder",
			"outputs": [
				{
					"internalType": "uint256",
					"name": "",
					"type": "uint256"
				},
				{
					"internalType": "string[]",
					"name": "",
					"type": "string[]"
				},
				{
					"internalType": "string[]",
					"name": "",
					"type": "string[]"
				},
				{
					"internalType": "string[]",
					"name": "",
					"type": "string[]"
				},
				{
					"internalType": "string[]",
					"name": "",
					"type": "string[]"
				},
				{
					"internalType": "string",
					"name": "",
					"type": "string"
				},
				{
					"internalType": "string",
					"name": "",
					"type": "string"
				}
			],
			"stateMutability": "view",
			"type": "function"
		},
		{
			"inputs": [
				{
					"internalType": "uint256",
					"name": "_subOrderId",
					"type": "uint256"
				}
			],
			"name": "getSubOrder",
			"outputs": [
				{
					"internalType": "uint256",
					"name": "",
					"type": "uint256"
				},
				{
					"internalType": "uint256",
					"name": "",
					"type": "uint256"
				},
				{
					"internalType": "string[]",
					"name": "",
					"type": "string[]"
				},
				{
					"internalType": "string",
					"name": "",
					"type": "string"
				}
			],
			"stateMutability": "view",
			"type": "function"
		},
		{
			"inputs": [
				{
					"internalType": "uint256",
					"name": "_orderId",
					"type": "uint256"
				},
				{
					"internalType": "uint256",
					"name": "_subOrderId",
					"type": "uint256"
				},
				{
					"internalType": "string",
					"name": "_timeLineEntry",
					"type": "string"
				},
				{
					"internalType": "string",
					"name": "_subTimeLineEntry",
					"type": "string"
				}
			],
			"name": "pushBothToTimeLine",
			"outputs": [],
			"stateMutability": "nonpayable",
			"type": "function"
		},
		{
			"inputs": [
				{
					"internalType": "uint256",
					"name": "_orderId",
					"type": "uint256"
				},
				{
					"internalType": "string",
					"name": "_historyEntry",
					"type": "string"
				}
			],
			"name": "pushToHistory",
			"outputs": [],
			"stateMutability": "nonpayable",
			"type": "function"
		},
		{
			"inputs": [
				{
					"internalType": "uint256",
					"name": "_orderId",
					"type": "uint256"
				},
				{
					"internalType": "string",
					"name": "_materialEntry",
					"type": "string"
				}
			],
			"name": "pushToMaterial",
			"outputs": [],
			"stateMutability": "nonpayable",
			"type": "function"
		},
		{
			"inputs": [
				{
					"internalType": "uint256",
					"name": "_orderId",
					"type": "uint256"
				},
				{
					"internalType": "string",
					"name": "_shippingEntry",
					"type": "string"
				}
			],
			"name": "pushToShipping",
			"outputs": [],
			"stateMutability": "nonpayable",
			"type": "function"
		},
		{
			"inputs": [
				{
					"internalType": "uint256",
					"name": "_subOrderId",
					"type": "uint256"
				},
				{
					"internalType": "string",
					"name": "_subTimeLineEntry",
					"type": "string"
				}
			],
			"name": "pushToSubTimeLine",
			"outputs": [],
			"stateMutability": "nonpayable",
			"type": "function"
		},
		{
			"inputs": [
				{
					"internalType": "uint256",
					"name": "_orderId",
					"type": "uint256"
				},
				{
					"internalType": "string",
					"name": "_timeLineEntry",
					"type": "string"
				}
			],
			"name": "pushToTimeLine",
			"outputs": [],
			"stateMutability": "nonpayable",
			"type": "function"
		}
	]
}